{
  "contractName": "PasswordGame",
  "abi": [
    {
      "inputs": [],
      "stateMutability": "nonpayable",
      "type": "constructor"
    },
    {
      "inputs": [
        {
          "internalType": "address",
          "name": "addr",
          "type": "address"
        }
      ],
      "name": "isOwner",
      "outputs": [
        {
          "internalType": "bool",
          "name": "",
          "type": "bool"
        }
      ],
      "stateMutability": "view",
      "type": "function",
      "constant": true
    },
    {
      "inputs": [
        {
          "internalType": "address",
          "name": "newOwner",
          "type": "address"
        }
      ],
      "name": "replaceOwner",
      "outputs": [],
      "stateMutability": "nonpayable",
      "type": "function"
    },
    {
      "inputs": [
        {
          "internalType": "uint256",
          "name": "amount",
          "type": "uint256"
        }
      ],
      "name": "splitFunds",
      "outputs": [],
      "stateMutability": "nonpayable",
      "type": "function"
    },
    {
      "inputs": [
        {
          "internalType": "address",
          "name": "addr",
          "type": "address"
        }
      ],
      "name": "getBetInit",
      "outputs": [
        {
          "internalType": "bool",
          "name": "",
          "type": "bool"
        }
      ],
      "stateMutability": "view",
      "type": "function",
      "constant": true
    },
    {
      "inputs": [
        {
          "internalType": "address",
          "name": "addr",
          "type": "address"
        }
      ],
      "name": "getBetIndex",
      "outputs": [
        {
          "internalType": "uint8",
          "name": "",
          "type": "uint8"
        }
      ],
      "stateMutability": "view",
      "type": "function",
      "constant": true
    },
    {
      "inputs": [
        {
          "internalType": "address",
          "name": "addr",
          "type": "address"
        }
      ],
      "name": "getBetBlockNumber",
      "outputs": [
        {
          "internalType": "uint256",
          "name": "",
          "type": "uint256"
        }
      ],
      "stateMutability": "view",
      "type": "function",
      "constant": true
    },
    {
      "inputs": [
        {
          "internalType": "address",
          "name": "addr",
          "type": "address"
        }
      ],
      "name": "getBetCodes",
      "outputs": [
        {
          "internalType": "uint8[9]",
          "name": "",
          "type": "uint8[9]"
        }
      ],
      "stateMutability": "view",
      "type": "function",
      "constant": true
    },
    {
      "inputs": [
        {
          "internalType": "uint8",
          "name": "betIndex",
          "type": "uint8"
        },
        {
          "internalType": "uint8[9]",
          "name": "codes",
          "type": "uint8[9]"
        }
      ],
      "name": "createBet",
      "outputs": [],
      "stateMutability": "payable",
      "type": "function",
      "payable": true
    },
    {
      "inputs": [],
      "name": "withdrawBet",
      "outputs": [],
      "stateMutability": "nonpayable",
      "type": "function"
    },
    {
      "inputs": [],
      "name": "verifyBet",
      "outputs": [
        {
          "internalType": "bool",
          "name": "",
          "type": "bool"
        }
      ],
      "stateMutability": "nonpayable",
      "type": "function"
    }
  ],
  "bytecode": "0x6080604052600a600160006101000a81548160ff021916908360ff1602179055503480156200002d57600080fd5b506040518060200160405280739a267d357488fb3b8fdee8c32694b6075c3a204473ffffffffffffffffffffffffffffffffffffffff1673ffffffffffffffffffffffffffffffffffffffff1681525060009060016200008f92919062000144565b506040518060600160405280600260ff168152602001600560ff168152602001600a60ff168152506002906003620000c9929190620001d3565b506040518060600160405280600a60ff168152602001601960ff168152602001603260ff16815250600390600362000103929190620001d3565b506040518060600160405280601d60ff168152602001602f60ff168152602001603d60ff1681525060049060036200013d929190620001d3565b50620002a0565b828054828255906000526020600020908101928215620001c0579160200282015b82811115620001bf5782518260006101000a81548173ffffffffffffffffffffffffffffffffffffffff021916908373ffffffffffffffffffffffffffffffffffffffff1602179055509160200191906001019062000165565b5b509050620001cf919062000281565b5090565b82805482825590600052602060002090601f016020900481019282156200026e5791602002820160005b838211156200023d57835183826101000a81548160ff021916908360ff1602179055509260200192600101602081600001049283019260010302620001fd565b80156200026c5782816101000a81549060ff02191690556001016020816000010492830192600103026200023d565b505b5090506200027d919062000281565b5090565b5b808211156200029c57600081600090555060010162000282565b5090565b611e7b80620002b06000396000f3fe6080604052600436106100915760003560e01c806391117a3c1161005957806391117a3c14610192578063a39a45b7146101cf578063b1f97b60146101f8578063b240798e14610235578063e47a68df1461024c57610091565b80632f1335cf146100965780632f54bf6e146100bf5780633f3ade97146100fc5780635b47c738146101185780636032633714610155575b600080fd5b3480156100a257600080fd5b506100bd60048036038101906100b89190611681565b610277565b005b3480156100cb57600080fd5b506100e660048036038101906100e19190611658565b6103c4565b6040516100f391906118de565b60405180910390f35b610116600480360381019061011191906116d3565b610499565b005b34801561012457600080fd5b5061013f600480360381019061013a9190611658565b61093e565b60405161014c9190611979565b60405180910390f35b34801561016157600080fd5b5061017c60048036038101906101779190611658565b61098a565b6040516101899190611994565b60405180910390f35b34801561019e57600080fd5b506101b960048036038101906101b49190611658565b6109e3565b6040516101c691906118de565b60405180910390f35b3480156101db57600080fd5b506101f660048036038101906101f19190611658565b610a3c565b005b34801561020457600080fd5b5061021f600480360381019061021a9190611658565b610b88565b60405161022c91906118c2565b60405180910390f35b34801561024157600080fd5b5061024a610c41565b005b34801561025857600080fd5b50610261610e84565b60405161026e91906118de565b60405180910390f35b610280336103c4565b61028957600080fd5b60005b6000805490508110156103c05760008082815481106102d4577f4e487b7100000000000000000000000000000000000000000000000000000000600052603260045260246000fd5b9060005260206000200160009054906101000a900473ffffffffffffffffffffffffffffffffffffffff1673ffffffffffffffffffffffffffffffffffffffff16600080549050846103269190611a85565b604051610332906118ad565b60006040518083038185875af1925050503d806000811461036f576040519150601f19603f3d011682016040523d82523d6000602084013e610374565b606091505b50509050806103ac577f4e487b7100000000000000000000000000000000000000000000000000000000600052600160045260246000fd5b5080806103b890611bb5565b91505061028c565b5050565b600080600090505b60008054905081101561048e5760008181548110610413577f4e487b7100000000000000000000000000000000000000000000000000000000600052603260045260246000fd5b9060005260206000200160009054906101000a900473ffffffffffffffffffffffffffffffffffffffff1673ffffffffffffffffffffffffffffffffffffffff168373ffffffffffffffffffffffffffffffffffffffff16141561047b576001915050610494565b808061048690611bb5565b9150506103cc565b50600090505b919050565b60028260ff16815481106104d6577f4e487b7100000000000000000000000000000000000000000000000000000000600052603260045260246000fd5b90600052602060002090602091828204019190069054906101000a900460ff1660ff1634101580156105555750600560003373ffffffffffffffffffffffffffffffffffffffff1673ffffffffffffffffffffffffffffffffffffffff16815260200190815260200160002060000160009054906101000a900460ff16155b610594576040517f08c379a000000000000000000000000000000000000000000000000000000000815260040161058b90611939565b60405180910390fd5b60038260ff16815481106105d1577f4e487b7100000000000000000000000000000000000000000000000000000000600052603260045260246000fd5b90600052602060002090602091828204019190069054906101000a900460ff1660ff16471015610636576040517f08c379a000000000000000000000000000000000000000000000000000000000815260040161062d906118f9565b60405180910390fd5b60005b60098160ff161015610715576001828260ff1660098110610683577f4e487b7100000000000000000000000000000000000000000000000000000000600052603260045260246000fd5b60200201602081019061069691906116aa565b60ff16101580156106f957506009828260ff16600981106106e0577f4e487b7100000000000000000000000000000000000000000000000000000000600052603260045260246000fd5b6020020160208101906106f391906116aa565b60ff1611155b61070257600080fd5b808061070d90611bfe565b915050610639565b5060038260ff161061072657600080fd5b60405180608001604052806001151581526020014381526020018360ff168152602001826009806020026040519081016040528092919082600960200280828437600081840152601f19601f820116905080830192505050505050815250600560003373ffffffffffffffffffffffffffffffffffffffff1673ffffffffffffffffffffffffffffffffffffffff16815260200190815260200160002060008201518160000160006101000a81548160ff0219169083151502179055506020820151816001015560408201518160020160006101000a81548160ff021916908360ff16021790555060608201518160030190600961082592919061151a565b50905050600060028360ff1681548110610868577f4e487b7100000000000000000000000000000000000000000000000000000000600052603260045260246000fd5b90600052602060002090602091828204019190069054906101000a900460ff1660ff16346108969190611b22565b905060003373ffffffffffffffffffffffffffffffffffffffff16826040516108be906118ad565b60006040518083038185875af1925050503d80600081146108fb576040519150601f19603f3d011682016040523d82523d6000602084013e610900565b606091505b5050905080610938577f4e487b7100000000000000000000000000000000000000000000000000000000600052600160045260246000fd5b50505050565b6000600560008373ffffffffffffffffffffffffffffffffffffffff1673ffffffffffffffffffffffffffffffffffffffff168152602001908152602001600020600101549050919050565b6000600560008373ffffffffffffffffffffffffffffffffffffffff1673ffffffffffffffffffffffffffffffffffffffff16815260200190815260200160002060020160009054906101000a900460ff169050919050565b6000600560008373ffffffffffffffffffffffffffffffffffffffff1673ffffffffffffffffffffffffffffffffffffffff16815260200190815260200160002060000160009054906101000a900460ff169050919050565b60005b6000805490508160ff161015610b84573373ffffffffffffffffffffffffffffffffffffffff1660008260ff1681548110610aa3577f4e487b7100000000000000000000000000000000000000000000000000000000600052603260045260246000fd5b9060005260206000200160009054906101000a900473ffffffffffffffffffffffffffffffffffffffff1673ffffffffffffffffffffffffffffffffffffffff161415610b71578160008260ff1681548110610b28577f4e487b7100000000000000000000000000000000000000000000000000000000600052603260045260246000fd5b9060005260206000200160006101000a81548173ffffffffffffffffffffffffffffffffffffffff021916908373ffffffffffffffffffffffffffffffffffffffff1602179055505b8080610b7c90611bfe565b915050610a3f565b5050565b610b906115b4565b6000600560008473ffffffffffffffffffffffffffffffffffffffff1673ffffffffffffffffffffffffffffffffffffffff168152602001908152602001600020600301600980602002604051908101604052809291908260098015610c31576020028201916000905b82829054906101000a900460ff1660ff1681526020019060010190602082600001049283019260010382029150808411610bfa5790505b5050505050905080915050919050565b6000600560003373ffffffffffffffffffffffffffffffffffffffff1673ffffffffffffffffffffffffffffffffffffffff16815260200190815260200160002090508060000160009054906101000a900460ff16610cd5576040517f08c379a0000000000000000000000000000000000000000000000000000000008152600401610ccc90611919565b60405180910390fd5b600060028260020160009054906101000a900460ff1660ff1681548110610d25577f4e487b7100000000000000000000000000000000000000000000000000000000600052603260045260246000fd5b90600052602060002090602091828204019190069054906101000a900460ff169050600082600101549050600560003373ffffffffffffffffffffffffffffffffffffffff1673ffffffffffffffffffffffffffffffffffffffff168152602001908152602001600020600080820160006101000a81549060ff021916905560018201600090556002820160006101000a81549060ff0219169055600382016000610dd091906115d7565b505080431415610e7f5760003373ffffffffffffffffffffffffffffffffffffffff168360ff16604051610e03906118ad565b60006040518083038185875af1925050503d8060008114610e40576040519150601f19603f3d011682016040523d82523d6000602084013e610e45565b606091505b5050905080610e7d577f4e487b7100000000000000000000000000000000000000000000000000000000600052600160045260246000fd5b505b505050565b600080600560003373ffffffffffffffffffffffffffffffffffffffff1673ffffffffffffffffffffffffffffffffffffffff16815260200190815260200160002090508060000160009054906101000a900460ff16610f19576040517f08c379a0000000000000000000000000000000000000000000000000000000008152600401610f1090611959565b60405180910390fd5b80600101544311610f2957600080fd5b600081600101549050600082600301600980602002604051908101604052809291908260098015610f95576020028201916000905b82829054906101000a900460ff1660ff1681526020019060010190602082600001049283019260010382029150808411610f5e5790505b5050505050905060008360020160009054906101000a900460ff169050600560003373ffffffffffffffffffffffffffffffffffffffff1673ffffffffffffffffffffffffffffffffffffffff168152602001908152602001600020600080820160006101000a81549060ff021916905560018201600090556002820160006101000a81549060ff021916905560038201600061103291906115d7565b5050600061109d848460048560ff1681548110611078577f4e487b7100000000000000000000000000000000000000000000000000000000600052603260045260246000fd5b90600052602060002090602091828204019190069054906101000a900460ff1661138a565b9050801561137e5760006064600160009054906101000a900460ff1660038560ff16815481106110f6577f4e487b7100000000000000000000000000000000000000000000000000000000600052603260045260246000fd5b90600052602060002090602091828204019190069054906101000a900460ff166111209190611ae7565b61112a9190611ab6565b60ff16905060008160038560ff168154811061116f577f4e487b7100000000000000000000000000000000000000000000000000000000600052603260045260246000fd5b90600052602060002090602091828204019190069054906101000a900460ff1660ff1661119c9190611b22565b905060005b6000805490508110156112d55760008082815481106111e9577f4e487b7100000000000000000000000000000000000000000000000000000000600052603260045260246000fd5b9060005260206000200160009054906101000a900473ffffffffffffffffffffffffffffffffffffffff1673ffffffffffffffffffffffffffffffffffffffff166000805490508561123b9190611a85565b604051611247906118ad565b60006040518083038185875af1925050503d8060008114611284576040519150601f19603f3d011682016040523d82523d6000602084013e611289565b606091505b50509050806112c1577f4e487b7100000000000000000000000000000000000000000000000000000000600052600160045260246000fd5b5080806112cd90611bb5565b9150506111a1565b5060003373ffffffffffffffffffffffffffffffffffffffff16826040516112fc906118ad565b60006040518083038185875af1925050503d8060008114611339576040519150601f19603f3d011682016040523d82523d6000602084013e61133e565b606091505b5050905080611376577f4e487b7100000000000000000000000000000000000000000000000000000000600052600160045260246000fd5b50505061137f565b5b809550505050505090565b600080600090505b600981101561150d576000846002836113ab91906119f8565b600981106113e2577f4e487b7100000000000000000000000000000000000000000000000000000000600052603260045260246000fd5b6020020151600a866001856113f791906119f8565b6009811061142e577f4e487b7100000000000000000000000000000000000000000000000000000000600052603260045260246000fd5b602002015161143d9190611ae7565b6064878560098110611478577f4e487b7100000000000000000000000000000000000000000000000000000000600052603260045260246000fd5b60200201516114879190611ae7565b6114919190611a4e565b61149b9190611a4e565b60ff16905060008160001b87406040516020016114b9929190611881565b6040516020818303038152906040528051906020012060001c905060008560ff16826114e59190611c32565b14156114f75760019350505050611513565b505060038161150691906119f8565b9050611392565b50600090505b9392505050565b826009601f016020900481019282156115a35791602002820160005b8382111561157457835183826101000a81548160ff021916908360ff1602179055509260200192600101602081600001049283019260010302611536565b80156115a15782816101000a81549060ff0219169055600101602081600001049283019260010302611574565b505b5090506115b091906115de565b5090565b604051806101200160405280600990602082028036833780820191505090505090565b5060009055565b5b808211156115f75760008160009055506001016115df565b5090565b60008135905061160a81611e00565b92915050565b60008190508260206009028201111561162857600080fd5b92915050565b60008135905061163d81611e17565b92915050565b60008135905061165281611e2e565b92915050565b60006020828403121561166a57600080fd5b6000611678848285016115fb565b91505092915050565b60006020828403121561169357600080fd5b60006116a18482850161162e565b91505092915050565b6000602082840312156116bc57600080fd5b60006116ca84828501611643565b91505092915050565b60008061014083850312156116e757600080fd5b60006116f585828601611643565b925050602061170685828601611610565b9150509250929050565b600061171c8383611863565b60208301905092915050565b611731816119b9565b61173b81846119d1565b9250611746826119af565b8060005b8381101561177757815161175e8782611710565b9650611769836119c4565b92505060018101905061174a565b505050505050565b61178881611b68565b82525050565b61179f61179a82611b74565b611c28565b82525050565b60006117b26039836119e7565b91506117bd82611cc1565b604082019050919050565b60006117d5602a836119e7565b91506117e082611d10565b604082019050919050565b60006117f8603e836119e7565b915061180382611d5f565b604082019050919050565b600061181b6000836119dc565b915061182682611dae565b600082019050919050565b600061183e6028836119e7565b915061184982611db1565b604082019050919050565b61185d81611b9e565b82525050565b61186c81611ba8565b82525050565b61187b81611ba8565b82525050565b600061188d828561178e565b60208201915061189d828461178e565b6020820191508190509392505050565b60006118b88261180e565b9150819050919050565b6000610120820190506118d86000830184611728565b92915050565b60006020820190506118f3600083018461177f565b92915050565b60006020820190508181036000830152611912816117a5565b9050919050565b60006020820190508181036000830152611932816117c8565b9050919050565b60006020820190508181036000830152611952816117eb565b9050919050565b6000602082019050818103600083015261197281611831565b9050919050565b600060208201905061198e6000830184611854565b92915050565b60006020820190506119a96000830184611872565b92915050565b6000819050919050565b600060099050919050565b6000602082019050919050565b600081905092915050565b600081905092915050565b600082825260208201905092915050565b6000611a0382611b9e565b9150611a0e83611b9e565b9250827fffffffffffffffffffffffffffffffffffffffffffffffffffffffffffffffff03821115611a4357611a42611c63565b5b828201905092915050565b6000611a5982611ba8565b9150611a6483611ba8565b92508260ff03821115611a7a57611a79611c63565b5b828201905092915050565b6000611a9082611b9e565b9150611a9b83611b9e565b925082611aab57611aaa611c92565b5b828204905092915050565b6000611ac182611ba8565b9150611acc83611ba8565b925082611adc57611adb611c92565b5b828204905092915050565b6000611af282611ba8565b9150611afd83611ba8565b92508160ff0483118215151615611b1757611b16611c63565b5b828202905092915050565b6000611b2d82611b9e565b9150611b3883611b9e565b925082821015611b4b57611b4a611c63565b5b828203905092915050565b6000611b6182611b7e565b9050919050565b60008115159050919050565b6000819050919050565b600073ffffffffffffffffffffffffffffffffffffffff82169050919050565b6000819050919050565b600060ff82169050919050565b6000611bc082611b9e565b91507fffffffffffffffffffffffffffffffffffffffffffffffffffffffffffffffff821415611bf357611bf2611c63565b5b600182019050919050565b6000611c0982611ba8565b915060ff821415611c1d57611c1c611c63565b5b600182019050919050565b6000819050919050565b6000611c3d82611b9e565b9150611c4883611b9e565b925082611c5857611c57611c92565b5b828206905092915050565b7f4e487b7100000000000000000000000000000000000000000000000000000000600052601160045260246000fd5b7f4e487b7100000000000000000000000000000000000000000000000000000000600052601260045260246000fd5b7f54686572652773206e6f7420656e6f756768206d6f6e657920696e207468652060008201527f636f6e747261637420696e206361736520796f752077696e2100000000000000602082015250565b7f596f75206d757374206861766520706c6163656420612062657420746f20776960008201527f7468647261772069742100000000000000000000000000000000000000000000602082015250565b7f506c65617365206d616b65207375726520796f7520686176652073756666696360008201527f69656e742066756e647320616e64206e6f206163746976652062657473210000602082015250565b50565b7f596f75206d757374206861766520706c6163656420612062657420746f20766560008201527f7269667920697421000000000000000000000000000000000000000000000000602082015250565b611e0981611b56565b8114611e1457600080fd5b50565b611e2081611b9e565b8114611e2b57600080fd5b50565b611e3781611ba8565b8114611e4257600080fd5b5056fea26469706673582212201995ca53462d744e7977dc9808ec73fec570767692a9090d83c1f8a2d92f438264736f6c63430008010033",
  "immutableReferences": {},
  "source": "//SPDX-License-Identifier: UNLICENSED\npragma solidity >=0.4.22 <0.9.0;\n\ncontract PasswordGame {\n    \n    address[] owners;\n    uint8 interest = 10; // maximum must be 100, eg interest = 10 means 10%\n\n    uint8[] betAmounts;\n    uint8[] winAmounts;\n    uint8[] chances;\n\n    struct Bet {\n        bool init;\n        uint blockNumber;\n        uint8 betIndex;\n        uint8[9] codes;\n    }\n    \n    mapping (address => Bet) bets;\n    \n    constructor() {\n        owners = [0x9a267D357488fB3b8fdEE8C32694b6075c3a2044 /* <- example, our 3 addresses here */];\n        betAmounts = [2, 5, 10];    // randomly chosen, must fix\n        winAmounts = [10, 25, 50];  // randomly chosen, must fix\n        chances = [29, 47, 61];     // randomly chosen, must fix, should be prime numbers\n    }                               // chance is inversed percentage eg chance = 2 means 50%\n    \n    \n    /* checks if a given address is an owner */\n    function isOwner(address addr) public view returns (bool) {\n        for (uint i = 0; i < owners.length; i++) {\n            if (addr == owners[i]) return true;\n        }\n        return false;\n    }\n    \n    /* allows an owner to replace his address with another owner */\n    function replaceOwner(address newOwner) public {\n        //require (isOwner(msg.sender), \"You must be already an owner to add new owners!\"); omitted to save gas from double loops\n        for (uint8 i = 0; i < owners.length; i < i++) {\n            if (owners[i] == msg.sender) owners[i] = newOwner;\n        }\n    }\n\n    /* splits an amount of funds from the contract's address among contract owners */\n    function splitFunds(uint amount) public {\n        require (isOwner(msg.sender));\n        for (uint i = 0; i < owners.length; i++) {\n            (bool success,) = owners[i].call{value: amount/owners.length}('');\n            assert(success); // if (!success) revert(); works too\n        }\n    }\n    \n    /* getters */\n    function getBetInit(address addr) public view returns (bool) {return bets[addr].init;}\n    function getBetIndex(address addr) public view returns (uint8) {return bets[addr].betIndex;}\n    function getBetBlockNumber(address addr) public view returns (uint) {return bets[addr].blockNumber;}\n    function getBetCodes(address addr) public view returns (uint8[9] memory) {\n        uint8[9] memory c = bets[addr].codes;\n        return c;\n    }\n    /* getters */\n\n    /* creates a bet for a player */\n    function createBet(uint8 betIndex, uint8[9] calldata codes) external payable {\n        require(msg.value >= betAmounts[betIndex] && !bets[msg.sender].init, \"Please make sure you have sufficient funds and no active bets!\");\n        require(address(this).balance >= winAmounts[betIndex], \"There's not enough money in the contract in case you win!\");\n        for (uint8 i = 0; i < 9; i++) require(codes[i] >= 1 && codes[i] <= 9);\n        require(betIndex < 3);\n\n        bets[msg.sender] = Bet(true, block.number, betIndex, codes);\n        uint change = msg.value - betAmounts[betIndex];\n        (bool success,) = msg.sender.call{value: change}(''); assert(success);\n    }\n\n    /* withdraws a player's bet */\n    function withdrawBet() public {\n        Bet storage b = bets[msg.sender];\n        require(b.init, \"You must have placed a bet to withdraw it!\");\n\n        uint8 betAmount = betAmounts[b.betIndex];\n        uint betBlockNumber = b.blockNumber;\n        delete bets[msg.sender];\n\n        if (block.number == betBlockNumber) {\n            (bool success,) = msg.sender.call{value: betAmount}(''); \n            assert(success);\n        }\n    }\n\n    /* checks if a bet has won */\n    function verifyBet() public returns (bool) {\n        Bet storage b = bets[msg.sender];\n        require (b.init, \"You must have placed a bet to verify it!\");\n        require(block.number > b.blockNumber); // or blockhash will fail because the block won't be mined yet\n\n        uint blockNumber = b.blockNumber;\n        uint8[9] memory codes = b.codes;\n        uint8 betIndex = b.betIndex;\n        delete bets[msg.sender]; // maybe codes are not deleted correctly\n\n        bool verified = verifyCodes(blockNumber, codes, chances[betIndex]);\n        if (verified) {\n            uint ownerWins = winAmounts[betIndex] * interest / 100;\n            uint playerWins = winAmounts[betIndex] - ownerWins;\n\n            for (uint i = 0; i < owners.length; i++) {\n                (bool success2,) = owners[i].call{value: ownerWins/owners.length}(''); \n                assert(success2);\n            }\n            (bool success1,) = msg.sender.call{value: playerWins}(''); assert(success1);\n        } else {\n            /* ... you have lost ... */\n        }      \n        return verified;\n    }\n    \n    /* checks if any of a bet's codes has won */\n    function verifyCodes(uint blockNumber, uint8[9] memory codes, uint8 chance) private view returns (bool) {\n        for (uint i = 0; i < 9; i += 3) {\n            uint code = codes[i] * 100 + codes[i+1] * 10 + codes[i+2];\n            uint hashedCode = uint(keccak256(abi.encodePacked(bytes32(code), blockhash(blockNumber))));\n            if (hashedCode % chance == 0) return true;\n        }\n        return false;\n    }\n\n}\n\n/* \nto-do:\nadd events for js\n*/\n",
  "sourcePath": "/Users/macbook/Sync/Information Systems Dev/blockchain-gambling-game/back-end/contracts/PasswordGame.sol",
  "compiler": {
    "name": "solc",
    "version": "0.8.1+commit.df193b15.Emscripten.clang"
  },
  "schemaVersion": "3.4.1",
  "updatedAt": "2021-06-02T17:52:05.576Z",
  "networkType": "ethereum",
  "devdoc": {
    "kind": "dev",
    "methods": {},
    "version": 1
  },
  "userdoc": {
    "kind": "user",
    "methods": {},
    "version": 1
  }
}