{
  "contractName": "PasswordGame",
  "abi": [
    {
      "inputs": [],
      "stateMutability": "nonpayable",
      "type": "constructor"
    },
    {
      "inputs": [
        {
          "internalType": "address",
          "name": "addr",
          "type": "address"
        }
      ],
      "name": "isOwner",
      "outputs": [
        {
          "internalType": "bool",
          "name": "",
          "type": "bool"
        }
      ],
      "stateMutability": "view",
      "type": "function",
      "constant": true
    },
    {
      "inputs": [
        {
          "internalType": "address",
          "name": "newOwner",
          "type": "address"
        }
      ],
      "name": "replaceOwner",
      "outputs": [],
      "stateMutability": "nonpayable",
      "type": "function"
    },
    {
      "inputs": [
        {
          "internalType": "uint256",
          "name": "amount",
          "type": "uint256"
        }
      ],
      "name": "splitFunds",
      "outputs": [],
      "stateMutability": "nonpayable",
      "type": "function"
    },
    {
      "inputs": [
        {
          "internalType": "address",
          "name": "addr",
          "type": "address"
        }
      ],
      "name": "getBetInit",
      "outputs": [
        {
          "internalType": "bool",
          "name": "",
          "type": "bool"
        }
      ],
      "stateMutability": "view",
      "type": "function",
      "constant": true
    },
    {
      "inputs": [
        {
          "internalType": "address",
          "name": "addr",
          "type": "address"
        }
      ],
      "name": "getBetIndex",
      "outputs": [
        {
          "internalType": "uint8",
          "name": "",
          "type": "uint8"
        }
      ],
      "stateMutability": "view",
      "type": "function",
      "constant": true
    },
    {
      "inputs": [
        {
          "internalType": "address",
          "name": "addr",
          "type": "address"
        }
      ],
      "name": "getBetBlockNumber",
      "outputs": [
        {
          "internalType": "uint256",
          "name": "",
          "type": "uint256"
        }
      ],
      "stateMutability": "view",
      "type": "function",
      "constant": true
    },
    {
      "inputs": [
        {
          "internalType": "address",
          "name": "addr",
          "type": "address"
        }
      ],
      "name": "getBetCodes",
      "outputs": [
        {
          "internalType": "uint8[9]",
          "name": "",
          "type": "uint8[9]"
        }
      ],
      "stateMutability": "view",
      "type": "function",
      "constant": true
    },
    {
      "inputs": [
        {
          "internalType": "uint8",
          "name": "betIndex",
          "type": "uint8"
        },
        {
          "internalType": "uint8[9]",
          "name": "codes",
          "type": "uint8[9]"
        }
      ],
      "name": "createBet",
      "outputs": [],
      "stateMutability": "nonpayable",
      "type": "function"
    },
    {
      "inputs": [],
      "name": "withdrawBet",
      "outputs": [],
      "stateMutability": "nonpayable",
      "type": "function"
    },
    {
      "inputs": [],
      "name": "verifyBet",
      "outputs": [
        {
          "internalType": "bool",
          "name": "",
          "type": "bool"
        }
      ],
      "stateMutability": "nonpayable",
      "type": "function"
    }
  ],
  "bytecode": "0x6080604052600a600160006101000a81548160ff021916908360ff1602179055503480156200002d57600080fd5b506040518060200160405280739a267d357488fb3b8fdee8c32694b6075c3a204473ffffffffffffffffffffffffffffffffffffffff1673ffffffffffffffffffffffffffffffffffffffff1681525060009060016200008f92919062000144565b506040518060600160405280600260ff168152602001600560ff168152602001600a60ff168152506002906003620000c9929190620001d3565b506040518060600160405280600a60ff168152602001601960ff168152602001603260ff16815250600390600362000103929190620001d3565b506040518060600160405280601d60ff168152602001602f60ff168152602001603d60ff1681525060049060036200013d929190620001d3565b50620002a0565b828054828255906000526020600020908101928215620001c0579160200282015b82811115620001bf5782518260006101000a81548173ffffffffffffffffffffffffffffffffffffffff021916908373ffffffffffffffffffffffffffffffffffffffff1602179055509160200191906001019062000165565b5b509050620001cf919062000281565b5090565b82805482825590600052602060002090601f016020900481019282156200026e5791602002820160005b838211156200023d57835183826101000a81548160ff021916908360ff1602179055509260200192600101602081600001049283019260010302620001fd565b80156200026c5782816101000a81549060ff02191690556001016020816000010492830192600103026200023d565b505b5090506200027d919062000281565b5090565b5b808211156200029c57600081600090555060010162000282565b5090565b611dab80620002b06000396000f3fe608060405234801561001057600080fd5b506004361061009e5760003560e01c806391117a3c1161006657806391117a3c1461016b578063a39a45b71461019b578063b1f97b60146101b7578063b240798e146101e7578063e47a68df146101f15761009e565b80632f1335cf146100a35780632f54bf6e146100bf5780633f3ade97146100ef5780635b47c7381461010b578063603263371461013b575b600080fd5b6100bd60048036038101906100b891906115b1565b61020f565b005b6100d960048036038101906100d49190611588565b610360565b6040516100e6919061180e565b60405180910390f35b61010960048036038101906101049190611603565b610435565b005b61012560048036038101906101209190611588565b610834565b60405161013291906118a9565b60405180910390f35b61015560048036038101906101509190611588565b610880565b60405161016291906118c4565b60405180910390f35b61018560048036038101906101809190611588565b6108d9565b604051610192919061180e565b60405180910390f35b6101b560048036038101906101b09190611588565b610932565b005b6101d160048036038101906101cc9190611588565b610a7e565b6040516101de91906117f2565b60405180910390f35b6101ef610b37565b005b6101f9610da2565b604051610206919061180e565b60405180910390f35b61021833610360565b61022157600080fd5b60005b60008054905081101561035c576000806000838154811061026e577f4e487b7100000000000000000000000000000000000000000000000000000000600052603260045260246000fd5b9060005260206000200160009054906101000a900473ffffffffffffffffffffffffffffffffffffffff1673ffffffffffffffffffffffffffffffffffffffff16600080549050856102c091906119b5565b6040516102cc906117dd565b60006040518083038185875af1925050503d8060008114610309576040519150601f19603f3d011682016040523d82523d6000602084013e61030e565b606091505b509150915081610347577f4e487b7100000000000000000000000000000000000000000000000000000000600052600160045260246000fd5b5050808061035490611ae5565b915050610224565b5050565b600080600090505b60008054905081101561042a57600081815481106103af577f4e487b7100000000000000000000000000000000000000000000000000000000600052603260045260246000fd5b9060005260206000200160009054906101000a900473ffffffffffffffffffffffffffffffffffffffff1673ffffffffffffffffffffffffffffffffffffffff168373ffffffffffffffffffffffffffffffffffffffff161415610417576001915050610430565b808061042290611ae5565b915050610368565b50600090505b919050565b60028260ff1681548110610472577f4e487b7100000000000000000000000000000000000000000000000000000000600052603260045260246000fd5b90600052602060002090602091828204019190069054906101000a900460ff1660ff163373ffffffffffffffffffffffffffffffffffffffff1631101580156105085750600560003373ffffffffffffffffffffffffffffffffffffffff1673ffffffffffffffffffffffffffffffffffffffff16815260200190815260200160002060000160009054906101000a900460ff16155b610547576040517f08c379a000000000000000000000000000000000000000000000000000000000815260040161053e90611869565b60405180910390fd5b60038260ff1681548110610584577f4e487b7100000000000000000000000000000000000000000000000000000000600052603260045260246000fd5b90600052602060002090602091828204019190069054906101000a900460ff1660ff164710156105e9576040517f08c379a00000000000000000000000000000000000000000000000000000000081526004016105e090611829565b60405180910390fd5b60005b60098160ff1610156106f2576001828260ff1660098110610636577f4e487b7100000000000000000000000000000000000000000000000000000000600052603260045260246000fd5b60200201602081019061064991906115da565b60ff16101580156106ac57506009828260ff1660098110610693577f4e487b7100000000000000000000000000000000000000000000000000000000600052603260045260246000fd5b6020020160208101906106a691906115da565b60ff1611155b6106df577f4e487b7100000000000000000000000000000000000000000000000000000000600052600160045260246000fd5b80806106ea90611b2e565b9150506105ec565b5060038260ff161061072d577f4e487b7100000000000000000000000000000000000000000000000000000000600052600160045260246000fd5b60405180608001604052806001151581526020014381526020018360ff168152602001826009806020026040519081016040528092919082600960200280828437600081840152601f19601f820116905080830192505050505050815250600560003373ffffffffffffffffffffffffffffffffffffffff1673ffffffffffffffffffffffffffffffffffffffff16815260200190815260200160002060008201518160000160006101000a81548160ff0219169083151502179055506020820151816001015560408201518160020160006101000a81548160ff021916908360ff16021790555060608201518160030190600961082c92919061144a565b509050505050565b6000600560008373ffffffffffffffffffffffffffffffffffffffff1673ffffffffffffffffffffffffffffffffffffffff168152602001908152602001600020600101549050919050565b6000600560008373ffffffffffffffffffffffffffffffffffffffff1673ffffffffffffffffffffffffffffffffffffffff16815260200190815260200160002060020160009054906101000a900460ff169050919050565b6000600560008373ffffffffffffffffffffffffffffffffffffffff1673ffffffffffffffffffffffffffffffffffffffff16815260200190815260200160002060000160009054906101000a900460ff169050919050565b60005b6000805490508160ff161015610a7a573373ffffffffffffffffffffffffffffffffffffffff1660008260ff1681548110610999577f4e487b7100000000000000000000000000000000000000000000000000000000600052603260045260246000fd5b9060005260206000200160009054906101000a900473ffffffffffffffffffffffffffffffffffffffff1673ffffffffffffffffffffffffffffffffffffffff161415610a67578160008260ff1681548110610a1e577f4e487b7100000000000000000000000000000000000000000000000000000000600052603260045260246000fd5b9060005260206000200160006101000a81548173ffffffffffffffffffffffffffffffffffffffff021916908373ffffffffffffffffffffffffffffffffffffffff1602179055505b8080610a7290611b2e565b915050610935565b5050565b610a866114e4565b6000600560008473ffffffffffffffffffffffffffffffffffffffff1673ffffffffffffffffffffffffffffffffffffffff168152602001908152602001600020600301600980602002604051908101604052809291908260098015610b27576020028201916000905b82829054906101000a900460ff1660ff1681526020019060010190602082600001049283019260010382029150808411610af05790505b5050505050905080915050919050565b600560003373ffffffffffffffffffffffffffffffffffffffff1673ffffffffffffffffffffffffffffffffffffffff16815260200190815260200160002060000160009054906101000a900460ff16610bc6576040517f08c379a0000000000000000000000000000000000000000000000000000000008152600401610bbd90611849565b60405180910390fd5b60006002600560003373ffffffffffffffffffffffffffffffffffffffff1673ffffffffffffffffffffffffffffffffffffffff16815260200190815260200160002060020160009054906101000a900460ff1660ff1681548110610c54577f4e487b7100000000000000000000000000000000000000000000000000000000600052603260045260246000fd5b90600052602060002090602091828204019190069054906101000a900460ff169050600560003373ffffffffffffffffffffffffffffffffffffffff1673ffffffffffffffffffffffffffffffffffffffff168152602001908152602001600020600080820160006101000a81549060ff021916905560018201600090556002820160006101000a81549060ff0219169055600382016000610cf69190611507565b50506000803373ffffffffffffffffffffffffffffffffffffffff168360ff16604051610d22906117dd565b60006040518083038185875af1925050503d8060008114610d5f576040519150601f19603f3d011682016040523d82523d6000602084013e610d64565b606091505b509150915081610d9d577f4e487b7100000000000000000000000000000000000000000000000000000000600052600160045260246000fd5b505050565b600080600560003373ffffffffffffffffffffffffffffffffffffffff1673ffffffffffffffffffffffffffffffffffffffff16815260200190815260200160002090508060000160009054906101000a900460ff16610e37576040517f08c379a0000000000000000000000000000000000000000000000000000000008152600401610e2e90611889565b60405180910390fd5b80600101544311610e71577f4e487b7100000000000000000000000000000000000000000000000000000000600052600160045260246000fd5b6000610ef282600101548360030160048560020160009054906101000a900460ff1660ff1681548110610ecd577f4e487b7100000000000000000000000000000000000000000000000000000000600052603260045260246000fd5b90600052602060002090602091828204019190069054906101000a900460ff16611287565b905080156111fc5760006064600160009054906101000a900460ff1660038560020160009054906101000a900460ff1660ff1681548110610f5c577f4e487b7100000000000000000000000000000000000000000000000000000000600052603260045260246000fd5b90600052602060002090602091828204019190069054906101000a900460ff16610f869190611a17565b610f9091906119e6565b60ff16905060008160038560020160009054906101000a900460ff1660ff1681548110610fe6577f4e487b7100000000000000000000000000000000000000000000000000000000600052603260045260246000fd5b90600052602060002090602091828204019190069054906101000a900460ff1660ff166110139190611a52565b90506000803373ffffffffffffffffffffffffffffffffffffffff168360405161103c906117dd565b60006040518083038185875af1925050503d8060008114611079576040519150601f19603f3d011682016040523d82523d6000602084013e61107e565b606091505b5091509150816110b7577f4e487b7100000000000000000000000000000000000000000000000000000000600052600160045260246000fd5b60005b6000805490508110156111f25760008060008381548110611104577f4e487b7100000000000000000000000000000000000000000000000000000000600052603260045260246000fd5b9060005260206000200160009054906101000a900473ffffffffffffffffffffffffffffffffffffffff1673ffffffffffffffffffffffffffffffffffffffff166000805490508861115691906119b5565b604051611162906117dd565b60006040518083038185875af1925050503d806000811461119f576040519150601f19603f3d011682016040523d82523d6000602084013e6111a4565b606091505b5091509150816111dd577f4e487b7100000000000000000000000000000000000000000000000000000000600052600160045260246000fd5b505080806111ea90611ae5565b9150506110ba565b50505050506111fd565b5b600560003373ffffffffffffffffffffffffffffffffffffffff1673ffffffffffffffffffffffffffffffffffffffff168152602001908152602001600020600080820160006101000a81549060ff021916905560018201600090556002820160006101000a81549060ff021916905560038201600061127d9190611507565b5050809250505090565b600080600090505b600981101561143d576000846002836112a89190611928565b600981106112df577f4e487b7100000000000000000000000000000000000000000000000000000000600052603260045260246000fd5b602091828204019190069054906101000a900460ff16600a866001856113059190611928565b6009811061133c577f4e487b7100000000000000000000000000000000000000000000000000000000600052603260045260246000fd5b602091828204019190069054906101000a900460ff1661135c9190611a17565b6064878560098110611397577f4e487b7100000000000000000000000000000000000000000000000000000000600052603260045260246000fd5b602091828204019190069054906101000a900460ff166113b79190611a17565b6113c1919061197e565b6113cb919061197e565b60ff16905060008160001b87406040516020016113e99291906117b1565b6040516020818303038152906040528051906020012060001c905060008560ff16826114159190611b62565b14156114275760019350505050611443565b50506003816114369190611928565b905061128f565b50600090505b9392505050565b826009601f016020900481019282156114d35791602002820160005b838211156114a457835183826101000a81548160ff021916908360ff1602179055509260200192600101602081600001049283019260010302611466565b80156114d15782816101000a81549060ff02191690556001016020816000010492830192600103026114a4565b505b5090506114e0919061150e565b5090565b604051806101200160405280600990602082028036833780820191505090505090565b5060009055565b5b8082111561152757600081600090555060010161150f565b5090565b60008135905061153a81611d30565b92915050565b60008190508260206009028201111561155857600080fd5b92915050565b60008135905061156d81611d47565b92915050565b60008135905061158281611d5e565b92915050565b60006020828403121561159a57600080fd5b60006115a88482850161152b565b91505092915050565b6000602082840312156115c357600080fd5b60006115d18482850161155e565b91505092915050565b6000602082840312156115ec57600080fd5b60006115fa84828501611573565b91505092915050565b600080610140838503121561161757600080fd5b600061162585828601611573565b925050602061163685828601611540565b9150509250929050565b600061164c8383611793565b60208301905092915050565b611661816118e9565b61166b8184611901565b9250611676826118df565b8060005b838110156116a757815161168e8782611640565b9650611699836118f4565b92505060018101905061167a565b505050505050565b6116b881611a98565b82525050565b6116cf6116ca82611aa4565b611b58565b82525050565b60006116e2603983611917565b91506116ed82611bf1565b604082019050919050565b6000611705602a83611917565b915061171082611c40565b604082019050919050565b6000611728603e83611917565b915061173382611c8f565b604082019050919050565b600061174b60008361190c565b915061175682611cde565b600082019050919050565b600061176e602883611917565b915061177982611ce1565b604082019050919050565b61178d81611ace565b82525050565b61179c81611ad8565b82525050565b6117ab81611ad8565b82525050565b60006117bd82856116be565b6020820191506117cd82846116be565b6020820191508190509392505050565b60006117e88261173e565b9150819050919050565b6000610120820190506118086000830184611658565b92915050565b600060208201905061182360008301846116af565b92915050565b60006020820190508181036000830152611842816116d5565b9050919050565b60006020820190508181036000830152611862816116f8565b9050919050565b600060208201905081810360008301526118828161171b565b9050919050565b600060208201905081810360008301526118a281611761565b9050919050565b60006020820190506118be6000830184611784565b92915050565b60006020820190506118d960008301846117a2565b92915050565b6000819050919050565b600060099050919050565b6000602082019050919050565b600081905092915050565b600081905092915050565b600082825260208201905092915050565b600061193382611ace565b915061193e83611ace565b9250827fffffffffffffffffffffffffffffffffffffffffffffffffffffffffffffffff0382111561197357611972611b93565b5b828201905092915050565b600061198982611ad8565b915061199483611ad8565b92508260ff038211156119aa576119a9611b93565b5b828201905092915050565b60006119c082611ace565b91506119cb83611ace565b9250826119db576119da611bc2565b5b828204905092915050565b60006119f182611ad8565b91506119fc83611ad8565b925082611a0c57611a0b611bc2565b5b828204905092915050565b6000611a2282611ad8565b9150611a2d83611ad8565b92508160ff0483118215151615611a4757611a46611b93565b5b828202905092915050565b6000611a5d82611ace565b9150611a6883611ace565b925082821015611a7b57611a7a611b93565b5b828203905092915050565b6000611a9182611aae565b9050919050565b60008115159050919050565b6000819050919050565b600073ffffffffffffffffffffffffffffffffffffffff82169050919050565b6000819050919050565b600060ff82169050919050565b6000611af082611ace565b91507fffffffffffffffffffffffffffffffffffffffffffffffffffffffffffffffff821415611b2357611b22611b93565b5b600182019050919050565b6000611b3982611ad8565b915060ff821415611b4d57611b4c611b93565b5b600182019050919050565b6000819050919050565b6000611b6d82611ace565b9150611b7883611ace565b925082611b8857611b87611bc2565b5b828206905092915050565b7f4e487b7100000000000000000000000000000000000000000000000000000000600052601160045260246000fd5b7f4e487b7100000000000000000000000000000000000000000000000000000000600052601260045260246000fd5b7f54686572652773206e6f7420656e6f756768206d6f6e657920696e207468652060008201527f636f6e747261637420696e206361736520796f752077696e2100000000000000602082015250565b7f596f75206d757374206861766520706c6163656420612062657420746f20776960008201527f7468647261772069742100000000000000000000000000000000000000000000602082015250565b7f506c65617365206d616b65207375726520796f7520686176652073756666696360008201527f69656e742066756e647320616e64206e6f206163746976652062657473210000602082015250565b50565b7f596f75206d757374206861766520706c6163656420612062657420746f20766560008201527f7269667920697421000000000000000000000000000000000000000000000000602082015250565b611d3981611a86565b8114611d4457600080fd5b50565b611d5081611ace565b8114611d5b57600080fd5b50565b611d6781611ad8565b8114611d7257600080fd5b5056fea2646970667358221220f70babce65a73abe4579c553f7174a19de79d90bbc8d1c1f576bb12aa2454e0264736f6c63430008010033",
  "immutableReferences": {},
  "source": "//SPDX-License-Identifier: UNLICENSED\npragma solidity >=0.4.22 <0.9.0;\n\ncontract PasswordGame {\n    \n    address[] owners;\n    uint8 interest = 10; // maximum must be 100, eg interest = 10 means 10%\n\n    uint8[] betAmounts;\n    uint8[] winAmounts;\n    uint8[] chances;\n\n    struct Bet {\n        bool init;\n        uint blockNumber;\n        uint8 betIndex;\n        uint8[9] codes;\n    }\n    \n    mapping (address => Bet) bets;\n    \n    constructor() {\n        owners = [0x9a267D357488fB3b8fdEE8C32694b6075c3a2044 /* <- example, our 3 addresses here */];\n        betAmounts = [2, 5, 10];    // randomly chosen, must fix\n        winAmounts = [10, 25, 50];  // randomly chosen, must fix\n        chances = [29, 47, 61];     // randomly chosen, must fix, should be prime numbers\n                                    // chance is inversed percentage eg chance = 2 means 50%\n    }\n    \n    /* checks if a given address is an owner */\n    function isOwner(address addr) public view returns (bool) {\n        for (uint i = 0; i < owners.length; i++) {\n            if (addr == owners[i]) return true;\n        }\n        return false;\n    }\n    \n    /* allows an owner to replace his address with another owner */\n    function replaceOwner(address newOwner) public {\n        //require (isOwner(msg.sender), \"You must be already an owner to add new owners!\"); omitted to save gas from double loops\n        for (uint8 i = 0; i < owners.length; i < i++) {\n            if (owners[i] == msg.sender) owners[i] = newOwner;\n        }\n    }\n\n    /* splits an amount of funds from the contract's address among contract owners */\n    function splitFunds(uint amount) public {\n        require (isOwner(msg.sender));\n        for (uint i = 0; i < owners.length; i++) {\n            (bool success, bytes memory b) = owners[i].call{value: amount/owners.length}('');\n            assert(success); // if (!success) revert(); works too\n        }\n    }\n    \n    /* getters */\n    function getBetInit(address addr) public view returns (bool) {return bets[addr].init;}\n    function getBetIndex(address addr) public view returns (uint8) {return bets[addr].betIndex;}\n    function getBetBlockNumber(address addr) public view returns (uint) {return bets[addr].blockNumber;}\n    function getBetCodes(address addr) public view returns (uint8[9] memory) {\n        uint8[9] memory c = bets[addr].codes;\n        return c;\n    }\n    /* getters */\n\n    /* creates a bet for a player */\n    function createBet(uint8 betIndex, uint8[9] calldata codes) public {\n        require(msg.sender.balance >= betAmounts[betIndex] && !bets[msg.sender].init, \"Please make sure you have sufficient funds and no active bets!\");\n        require(address(this).balance >= winAmounts[betIndex], \"There's not enough money in the contract in case you win!\");\n        for (uint8 i = 0; i < 9; i++) assert (codes[i] >= 1 && codes[i] <= 9);\n        assert (betIndex < 3);\n\n        bets[msg.sender] = Bet(true, block.number, betIndex, codes);\n        \n        /* ... transfer money ... */\n    }\n\n    /* withdraws a player's bet */\n    /* an prwta dinei lefta kai meta diagrafei, tote kapoios me ligo gas na parei pisw ta lefta alla na \n    min diagrapsei to bet tou. An omws prwta diagrafei to bet, prepei na apothikeuei se local metavliti \n    to posa lefta eixe paiksei ki auto isws kostisei parapanw gas*/\n    function withdrawBet() public {\n        require(bets[msg.sender].init, \"You must have placed a bet to withdraw it!\");\n        uint8 betAmount = betAmounts[bets[msg.sender].betIndex];\n        delete bets[msg.sender];\n        (bool success, bytes memory b) = msg.sender.call{value: betAmount}(''); \n        assert(success);\n    }\n\n    /* checks if a bet has won */\n    function verifyBet() public returns (bool) {\n        Bet storage b = bets[msg.sender];\n        require (b.init, \"You must have placed a bet to verify it!\");\n        assert(block.number > b.blockNumber); // or blockhash will fail because the block won't be mined yet\n\n        bool verified = verifyCodes(b.blockNumber, b.codes, chances[b.betIndex]);\n        if (verified) {\n            uint ownerWins = winAmounts[b.betIndex] * interest / 100;\n            uint playerWins = winAmounts[b.betIndex] - ownerWins;\n\n            (bool success1, bytes memory b1) = msg.sender.call{value: playerWins}(''); assert(success1);\n            for (uint i = 0; i < owners.length; i++) {\n                (bool success2, bytes memory b2) = owners[i].call{value: ownerWins/owners.length}(''); \n                assert(success2);\n            }\n        }\n        else {\n            /* ... you have lost ... */\n        }\n\n        delete bets[msg.sender]; // maybe codes are not deleted correctly\n        return verified;\n    }\n    \n    /* checks if any of a bet's codes has won */\n    function verifyCodes(uint blockNumber, uint8[9] storage codes, uint8 chance) private view returns (bool) {\n        for (uint i = 0; i < 9; i += 3) {\n            uint code = codes[i] * 100 + codes[i+1] * 10 + codes[i+2];\n            uint hashedCode = uint(keccak256(abi.encodePacked(bytes32(code), blockhash(blockNumber))));\n            if (hashedCode % chance == 0) return true;\n        }\n        return false;\n    }\n\n}\n\n/* \nto-do:\nadd events for js\n*/",
  "sourcePath": "/Users/macbook/Sync/Information Systems Dev/blockchain-gambling-game/back-end/contracts/PasswordGame.sol",
  "compiler": {
    "name": "solc",
    "version": "0.8.1+commit.df193b15.Emscripten.clang"
  },
  "schemaVersion": "3.4.1",
  "updatedAt": "2021-05-19T21:39:36.186Z",
  "networkType": "ethereum",
  "devdoc": {
    "kind": "dev",
    "methods": {},
    "version": 1
  },
  "userdoc": {
    "kind": "user",
    "methods": {},
    "version": 1
  }
}