{
  "contractName": "PasswordGame",
  "abi": [
    {
      "inputs": [],
      "stateMutability": "nonpayable",
      "type": "constructor"
    },
    {
      "inputs": [],
      "name": "debugVar",
      "outputs": [
        {
          "internalType": "uint256",
          "name": "",
          "type": "uint256"
        }
      ],
      "stateMutability": "view",
      "type": "function"
    },
    {
      "inputs": [
        {
          "internalType": "address",
          "name": "addr",
          "type": "address"
        }
      ],
      "name": "isOwner",
      "outputs": [
        {
          "internalType": "bool",
          "name": "",
          "type": "bool"
        }
      ],
      "stateMutability": "view",
      "type": "function"
    },
    {
      "inputs": [
        {
          "internalType": "address",
          "name": "newOwner",
          "type": "address"
        }
      ],
      "name": "replaceOwner",
      "outputs": [],
      "stateMutability": "nonpayable",
      "type": "function"
    },
    {
      "inputs": [
        {
          "internalType": "uint256",
          "name": "amount",
          "type": "uint256"
        }
      ],
      "name": "splitFunds",
      "outputs": [],
      "stateMutability": "nonpayable",
      "type": "function"
    },
    {
      "inputs": [
        {
          "internalType": "address",
          "name": "addr",
          "type": "address"
        }
      ],
      "name": "getBetInit",
      "outputs": [
        {
          "internalType": "bool",
          "name": "",
          "type": "bool"
        }
      ],
      "stateMutability": "view",
      "type": "function"
    },
    {
      "inputs": [
        {
          "internalType": "address",
          "name": "addr",
          "type": "address"
        }
      ],
      "name": "getBetIndex",
      "outputs": [
        {
          "internalType": "uint8",
          "name": "",
          "type": "uint8"
        }
      ],
      "stateMutability": "view",
      "type": "function"
    },
    {
      "inputs": [
        {
          "internalType": "address",
          "name": "addr",
          "type": "address"
        }
      ],
      "name": "getBetBlockNumber",
      "outputs": [
        {
          "internalType": "uint256",
          "name": "",
          "type": "uint256"
        }
      ],
      "stateMutability": "view",
      "type": "function"
    },
    {
      "inputs": [
        {
          "internalType": "address",
          "name": "addr",
          "type": "address"
        }
      ],
      "name": "getBetCodes",
      "outputs": [
        {
          "internalType": "uint8[9]",
          "name": "",
          "type": "uint8[9]"
        }
      ],
      "stateMutability": "view",
      "type": "function"
    },
    {
      "inputs": [
        {
          "internalType": "uint8",
          "name": "betIndex",
          "type": "uint8"
        },
        {
          "internalType": "uint8[9]",
          "name": "codes",
          "type": "uint8[9]"
        }
      ],
      "name": "createBet",
      "outputs": [],
      "stateMutability": "payable",
      "type": "function"
    },
    {
      "inputs": [],
      "name": "withdrawBet",
      "outputs": [],
      "stateMutability": "nonpayable",
      "type": "function"
    },
    {
      "inputs": [],
      "name": "verifyBet",
      "outputs": [
        {
          "internalType": "bool",
          "name": "",
          "type": "bool"
        }
      ],
      "stateMutability": "nonpayable",
      "type": "function"
    }
  ],
  "bytecode": "0x6080604052600a600160006101000a81548160ff021916908360ff1602179055503480156200002d57600080fd5b50604051806040016040528073c8d60a3ef175ffbd945bfb0cdbd45f20b36036ac73ffffffffffffffffffffffffffffffffffffffff1673ffffffffffffffffffffffffffffffffffffffff168152602001732c74134a11ea1d42005e4df91c454238d52f14d173ffffffffffffffffffffffffffffffffffffffff1673ffffffffffffffffffffffffffffffffffffffff168152506000906002620000d59291906200018a565b506040518060600160405280600260ff168152602001600560ff168152602001600a60ff1681525060029060036200010f92919062000219565b506040518060600160405280600a60ff168152602001601960ff168152602001603260ff1681525060039060036200014992919062000219565b506040518060600160405280601d60ff168152602001602f60ff168152602001603d60ff1681525060049060036200018392919062000219565b50620002e6565b82805482825590600052602060002090810192821562000206579160200282015b82811115620002055782518260006101000a81548173ffffffffffffffffffffffffffffffffffffffff021916908373ffffffffffffffffffffffffffffffffffffffff16021790555091602001919060010190620001ab565b5b509050620002159190620002c7565b5090565b82805482825590600052602060002090601f01602090048101928215620002b45791602002820160005b838211156200028357835183826101000a81548160ff021916908360ff160217905550926020019260010160208160000104928301926001030262000243565b8015620002b25782816101000a81549060ff021916905560010160208160000104928301926001030262000283565b505b509050620002c39190620002c7565b5090565b5b80821115620002e2576000816000905550600101620002c8565b5090565b611ebe80620002f66000396000f3fe60806040526004361061009c5760003560e01c806391117a3c1161006457806391117a3c1461019d578063a39a45b7146101da578063b148a64714610203578063b1f97b601461022e578063b240798e1461026b578063e47a68df146102825761009c565b80632f1335cf146100a15780632f54bf6e146100ca5780633f3ade97146101075780635b47c738146101235780636032633714610160575b600080fd5b3480156100ad57600080fd5b506100c860048036038101906100c391906116c4565b6102ad565b005b3480156100d657600080fd5b506100f160048036038101906100ec919061169b565b6103fa565b6040516100fe9190611921565b60405180910390f35b610121600480360381019061011c9190611716565b6104cf565b005b34801561012f57600080fd5b5061014a6004803603810190610145919061169b565b61097b565b60405161015791906119bc565b60405180910390f35b34801561016c57600080fd5b506101876004803603810190610182919061169b565b6109c7565b60405161019491906119d7565b60405180910390f35b3480156101a957600080fd5b506101c460048036038101906101bf919061169b565b610a20565b6040516101d19190611921565b60405180910390f35b3480156101e657600080fd5b5061020160048036038101906101fc919061169b565b610a79565b005b34801561020f57600080fd5b50610218610bc5565b60405161022591906119bc565b60405180910390f35b34801561023a57600080fd5b506102556004803603810190610250919061169b565b610bcb565b6040516102629190611905565b60405180910390f35b34801561027757600080fd5b50610280610c84565b005b34801561028e57600080fd5b50610297610ec7565b6040516102a49190611921565b60405180910390f35b6102b6336103fa565b6102bf57600080fd5b60005b6000805490508110156103f657600080828154811061030a577f4e487b7100000000000000000000000000000000000000000000000000000000600052603260045260246000fd5b9060005260206000200160009054906101000a900473ffffffffffffffffffffffffffffffffffffffff1673ffffffffffffffffffffffffffffffffffffffff166000805490508461035c9190611ac8565b604051610368906118f0565b60006040518083038185875af1925050503d80600081146103a5576040519150601f19603f3d011682016040523d82523d6000602084013e6103aa565b606091505b50509050806103e2577f4e487b7100000000000000000000000000000000000000000000000000000000600052600160045260246000fd5b5080806103ee90611bf8565b9150506102c2565b5050565b600080600090505b6000805490508110156104c45760008181548110610449577f4e487b7100000000000000000000000000000000000000000000000000000000600052603260045260246000fd5b9060005260206000200160009054906101000a900473ffffffffffffffffffffffffffffffffffffffff1673ffffffffffffffffffffffffffffffffffffffff168373ffffffffffffffffffffffffffffffffffffffff1614156104b15760019150506104ca565b80806104bc90611bf8565b915050610402565b50600090505b919050565b60028260ff168154811061050c577f4e487b7100000000000000000000000000000000000000000000000000000000600052603260045260246000fd5b90600052602060002090602091828204019190069054906101000a900460ff1660ff16341015801561058b5750600660003373ffffffffffffffffffffffffffffffffffffffff1673ffffffffffffffffffffffffffffffffffffffff16815260200190815260200160002060000160009054906101000a900460ff16155b6105ca576040517f08c379a00000000000000000000000000000000000000000000000000000000081526004016105c19061197c565b60405180910390fd5b60038260ff1681548110610607577f4e487b7100000000000000000000000000000000000000000000000000000000600052603260045260246000fd5b90600052602060002090602091828204019190069054906101000a900460ff1660ff1647101561066c576040517f08c379a00000000000000000000000000000000000000000000000000000000081526004016106639061193c565b60405180910390fd5b60005b60098160ff16101561074b576001828260ff16600981106106b9577f4e487b7100000000000000000000000000000000000000000000000000000000600052603260045260246000fd5b6020020160208101906106cc91906116ed565b60ff161015801561072f57506009828260ff1660098110610716577f4e487b7100000000000000000000000000000000000000000000000000000000600052603260045260246000fd5b60200201602081019061072991906116ed565b60ff1611155b61073857600080fd5b808061074390611c41565b91505061066f565b5060038260ff161061075c57600080fd5b60405180608001604052806001151581526020014381526020018360ff168152602001826009806020026040519081016040528092919082600960200280828437600081840152601f19601f820116905080830192505050505050815250600660003373ffffffffffffffffffffffffffffffffffffffff1673ffffffffffffffffffffffffffffffffffffffff16815260200190815260200160002060008201518160000160006101000a81548160ff0219169083151502179055506020820151816001015560408201518160020160006101000a81548160ff021916908360ff16021790555060608201518160030190600961085b92919061155d565b50905050600060028360ff168154811061089e577f4e487b7100000000000000000000000000000000000000000000000000000000600052603260045260246000fd5b90600052602060002090602091828204019190069054906101000a900460ff1660ff16346108cc9190611b65565b90508060058190555060003373ffffffffffffffffffffffffffffffffffffffff16826040516108fb906118f0565b60006040518083038185875af1925050503d8060008114610938576040519150601f19603f3d011682016040523d82523d6000602084013e61093d565b606091505b5050905080610975577f4e487b7100000000000000000000000000000000000000000000000000000000600052600160045260246000fd5b50505050565b6000600660008373ffffffffffffffffffffffffffffffffffffffff1673ffffffffffffffffffffffffffffffffffffffff168152602001908152602001600020600101549050919050565b6000600660008373ffffffffffffffffffffffffffffffffffffffff1673ffffffffffffffffffffffffffffffffffffffff16815260200190815260200160002060020160009054906101000a900460ff169050919050565b6000600660008373ffffffffffffffffffffffffffffffffffffffff1673ffffffffffffffffffffffffffffffffffffffff16815260200190815260200160002060000160009054906101000a900460ff169050919050565b60005b6000805490508160ff161015610bc1573373ffffffffffffffffffffffffffffffffffffffff1660008260ff1681548110610ae0577f4e487b7100000000000000000000000000000000000000000000000000000000600052603260045260246000fd5b9060005260206000200160009054906101000a900473ffffffffffffffffffffffffffffffffffffffff1673ffffffffffffffffffffffffffffffffffffffff161415610bae578160008260ff1681548110610b65577f4e487b7100000000000000000000000000000000000000000000000000000000600052603260045260246000fd5b9060005260206000200160006101000a81548173ffffffffffffffffffffffffffffffffffffffff021916908373ffffffffffffffffffffffffffffffffffffffff1602179055505b8080610bb990611c41565b915050610a7c565b5050565b60055481565b610bd36115f7565b6000600660008473ffffffffffffffffffffffffffffffffffffffff1673ffffffffffffffffffffffffffffffffffffffff168152602001908152602001600020600301600980602002604051908101604052809291908260098015610c74576020028201916000905b82829054906101000a900460ff1660ff1681526020019060010190602082600001049283019260010382029150808411610c3d5790505b5050505050905080915050919050565b6000600660003373ffffffffffffffffffffffffffffffffffffffff1673ffffffffffffffffffffffffffffffffffffffff16815260200190815260200160002090508060000160009054906101000a900460ff16610d18576040517f08c379a0000000000000000000000000000000000000000000000000000000008152600401610d0f9061195c565b60405180910390fd5b600060028260020160009054906101000a900460ff1660ff1681548110610d68577f4e487b7100000000000000000000000000000000000000000000000000000000600052603260045260246000fd5b90600052602060002090602091828204019190069054906101000a900460ff169050600082600101549050600660003373ffffffffffffffffffffffffffffffffffffffff1673ffffffffffffffffffffffffffffffffffffffff168152602001908152602001600020600080820160006101000a81549060ff021916905560018201600090556002820160006101000a81549060ff0219169055600382016000610e13919061161a565b505080431415610ec25760003373ffffffffffffffffffffffffffffffffffffffff168360ff16604051610e46906118f0565b60006040518083038185875af1925050503d8060008114610e83576040519150601f19603f3d011682016040523d82523d6000602084013e610e88565b606091505b5050905080610ec0577f4e487b7100000000000000000000000000000000000000000000000000000000600052600160045260246000fd5b505b505050565b600080600660003373ffffffffffffffffffffffffffffffffffffffff1673ffffffffffffffffffffffffffffffffffffffff16815260200190815260200160002090508060000160009054906101000a900460ff16610f5c576040517f08c379a0000000000000000000000000000000000000000000000000000000008152600401610f539061199c565b60405180910390fd5b80600101544311610f6c57600080fd5b600081600101549050600082600301600980602002604051908101604052809291908260098015610fd8576020028201916000905b82829054906101000a900460ff1660ff1681526020019060010190602082600001049283019260010382029150808411610fa15790505b5050505050905060008360020160009054906101000a900460ff169050600660003373ffffffffffffffffffffffffffffffffffffffff1673ffffffffffffffffffffffffffffffffffffffff168152602001908152602001600020600080820160006101000a81549060ff021916905560018201600090556002820160006101000a81549060ff0219169055600382016000611075919061161a565b505060006110e0848460048560ff16815481106110bb577f4e487b7100000000000000000000000000000000000000000000000000000000600052603260045260246000fd5b90600052602060002090602091828204019190069054906101000a900460ff166113cd565b905080156113c15760006064600160009054906101000a900460ff1660038560ff1681548110611139577f4e487b7100000000000000000000000000000000000000000000000000000000600052603260045260246000fd5b90600052602060002090602091828204019190069054906101000a900460ff166111639190611b2a565b61116d9190611af9565b60ff16905060008160038560ff16815481106111b2577f4e487b7100000000000000000000000000000000000000000000000000000000600052603260045260246000fd5b90600052602060002090602091828204019190069054906101000a900460ff1660ff166111df9190611b65565b905060005b60008054905081101561131857600080828154811061122c577f4e487b7100000000000000000000000000000000000000000000000000000000600052603260045260246000fd5b9060005260206000200160009054906101000a900473ffffffffffffffffffffffffffffffffffffffff1673ffffffffffffffffffffffffffffffffffffffff166000805490508561127e9190611ac8565b60405161128a906118f0565b60006040518083038185875af1925050503d80600081146112c7576040519150601f19603f3d011682016040523d82523d6000602084013e6112cc565b606091505b5050905080611304577f4e487b7100000000000000000000000000000000000000000000000000000000600052600160045260246000fd5b50808061131090611bf8565b9150506111e4565b5060003373ffffffffffffffffffffffffffffffffffffffff168260405161133f906118f0565b60006040518083038185875af1925050503d806000811461137c576040519150601f19603f3d011682016040523d82523d6000602084013e611381565b606091505b50509050806113b9577f4e487b7100000000000000000000000000000000000000000000000000000000600052600160045260246000fd5b5050506113c2565b5b809550505050505090565b600080600090505b6009811015611550576000846002836113ee9190611a3b565b60098110611425577f4e487b7100000000000000000000000000000000000000000000000000000000600052603260045260246000fd5b6020020151600a8660018561143a9190611a3b565b60098110611471577f4e487b7100000000000000000000000000000000000000000000000000000000600052603260045260246000fd5b60200201516114809190611b2a565b60648785600981106114bb577f4e487b7100000000000000000000000000000000000000000000000000000000600052603260045260246000fd5b60200201516114ca9190611b2a565b6114d49190611a91565b6114de9190611a91565b60ff16905060008160001b87406040516020016114fc9291906118c4565b6040516020818303038152906040528051906020012060001c905060008560ff16826115289190611c75565b141561153a5760019350505050611556565b50506003816115499190611a3b565b90506113d5565b50600090505b9392505050565b826009601f016020900481019282156115e65791602002820160005b838211156115b757835183826101000a81548160ff021916908360ff1602179055509260200192600101602081600001049283019260010302611579565b80156115e45782816101000a81549060ff02191690556001016020816000010492830192600103026115b7565b505b5090506115f39190611621565b5090565b604051806101200160405280600990602082028036833780820191505090505090565b5060009055565b5b8082111561163a576000816000905550600101611622565b5090565b60008135905061164d81611e43565b92915050565b60008190508260206009028201111561166b57600080fd5b92915050565b60008135905061168081611e5a565b92915050565b60008135905061169581611e71565b92915050565b6000602082840312156116ad57600080fd5b60006116bb8482850161163e565b91505092915050565b6000602082840312156116d657600080fd5b60006116e484828501611671565b91505092915050565b6000602082840312156116ff57600080fd5b600061170d84828501611686565b91505092915050565b600080610140838503121561172a57600080fd5b600061173885828601611686565b925050602061174985828601611653565b9150509250929050565b600061175f83836118a6565b60208301905092915050565b611774816119fc565b61177e8184611a14565b9250611789826119f2565b8060005b838110156117ba5781516117a18782611753565b96506117ac83611a07565b92505060018101905061178d565b505050505050565b6117cb81611bab565b82525050565b6117e26117dd82611bb7565b611c6b565b82525050565b60006117f5603983611a2a565b915061180082611d04565b604082019050919050565b6000611818602a83611a2a565b915061182382611d53565b604082019050919050565b600061183b603e83611a2a565b915061184682611da2565b604082019050919050565b600061185e600083611a1f565b915061186982611df1565b600082019050919050565b6000611881602883611a2a565b915061188c82611df4565b604082019050919050565b6118a081611be1565b82525050565b6118af81611beb565b82525050565b6118be81611beb565b82525050565b60006118d082856117d1565b6020820191506118e082846117d1565b6020820191508190509392505050565b60006118fb82611851565b9150819050919050565b60006101208201905061191b600083018461176b565b92915050565b600060208201905061193660008301846117c2565b92915050565b60006020820190508181036000830152611955816117e8565b9050919050565b600060208201905081810360008301526119758161180b565b9050919050565b600060208201905081810360008301526119958161182e565b9050919050565b600060208201905081810360008301526119b581611874565b9050919050565b60006020820190506119d16000830184611897565b92915050565b60006020820190506119ec60008301846118b5565b92915050565b6000819050919050565b600060099050919050565b6000602082019050919050565b600081905092915050565b600081905092915050565b600082825260208201905092915050565b6000611a4682611be1565b9150611a5183611be1565b9250827fffffffffffffffffffffffffffffffffffffffffffffffffffffffffffffffff03821115611a8657611a85611ca6565b5b828201905092915050565b6000611a9c82611beb565b9150611aa783611beb565b92508260ff03821115611abd57611abc611ca6565b5b828201905092915050565b6000611ad382611be1565b9150611ade83611be1565b925082611aee57611aed611cd5565b5b828204905092915050565b6000611b0482611beb565b9150611b0f83611beb565b925082611b1f57611b1e611cd5565b5b828204905092915050565b6000611b3582611beb565b9150611b4083611beb565b92508160ff0483118215151615611b5a57611b59611ca6565b5b828202905092915050565b6000611b7082611be1565b9150611b7b83611be1565b925082821015611b8e57611b8d611ca6565b5b828203905092915050565b6000611ba482611bc1565b9050919050565b60008115159050919050565b6000819050919050565b600073ffffffffffffffffffffffffffffffffffffffff82169050919050565b6000819050919050565b600060ff82169050919050565b6000611c0382611be1565b91507fffffffffffffffffffffffffffffffffffffffffffffffffffffffffffffffff821415611c3657611c35611ca6565b5b600182019050919050565b6000611c4c82611beb565b915060ff821415611c6057611c5f611ca6565b5b600182019050919050565b6000819050919050565b6000611c8082611be1565b9150611c8b83611be1565b925082611c9b57611c9a611cd5565b5b828206905092915050565b7f4e487b7100000000000000000000000000000000000000000000000000000000600052601160045260246000fd5b7f4e487b7100000000000000000000000000000000000000000000000000000000600052601260045260246000fd5b7f54686572652773206e6f7420656e6f756768206d6f6e657920696e207468652060008201527f636f6e747261637420696e206361736520796f752077696e2100000000000000602082015250565b7f596f75206d757374206861766520706c6163656420612062657420746f20776960008201527f7468647261772069742100000000000000000000000000000000000000000000602082015250565b7f506c65617365206d616b65207375726520796f7520686176652073756666696360008201527f69656e742066756e647320616e64206e6f206163746976652062657473210000602082015250565b50565b7f596f75206d757374206861766520706c6163656420612062657420746f20766560008201527f7269667920697421000000000000000000000000000000000000000000000000602082015250565b611e4c81611b99565b8114611e5757600080fd5b50565b611e6381611be1565b8114611e6e57600080fd5b50565b611e7a81611beb565b8114611e8557600080fd5b5056fea26469706673582212205c7b347e58f14763be12cf0758b2c74e670e458ae2ecf242dd979e04ad769e2c64736f6c63430008010033",
  "immutableReferences": {},
  "source": "//SPDX-License-Identifier: UNLICENSED\npragma solidity >=0.4.22 <0.9.0;\n\ncontract PasswordGame {\n    \n    address[] owners;\n    uint8 interest = 10; // maximum must be 100, eg interest = 10 means 10%\n\n    uint8[] betAmounts;\n    uint8[] winAmounts;\n    uint8[] chances;\n\n    struct Bet {\n        bool init;\n        uint blockNumber;\n        uint8 betIndex;\n        uint8[9] codes;\n    }\n    uint public debugVar;\n\n    mapping (address => Bet) bets;\n    \n    constructor() {\n        owners = [0xc8D60A3eF175FfBD945bfB0cdBd45F20B36036AC, 0x2C74134A11Ea1D42005E4dF91C454238D52f14D1  /* <- example, our 3 addresses here */];\n        betAmounts = [2, 5, 10];    // randomly chosen, must fix\n        winAmounts = [10, 25, 50];  // randomly chosen, must fix\n        chances = [29, 47, 61];     // randomly chosen, must fix, should be prime numbers\n    }                               // chance is inversed percentage eg chance = 2 means 50%\n    \n    \n    /* checks if a given address is an owner */\n    function isOwner(address addr) public view returns (bool) {\n        for (uint i = 0; i < owners.length; i++) {\n            if (addr == owners[i]) return true;\n        }\n        return false;\n    }\n    \n    /* allows an owner to replace his address with another owner */\n    function replaceOwner(address newOwner) public {\n        //require (isOwner(msg.sender), \"You must be already an owner to add new owners!\"); omitted to save gas from double loops\n        for (uint8 i = 0; i < owners.length; i < i++) {\n            if (owners[i] == msg.sender) owners[i] = newOwner;\n        }\n    }\n\n    /* splits an amount of funds from the contract's address among contract owners */\n    function splitFunds(uint amount) public {\n        require (isOwner(msg.sender));\n        for (uint i = 0; i < owners.length; i++) {\n            (bool success,) = owners[i].call{value: amount/owners.length}('');\n            assert(success); // if (!success) revert(); works too\n        }\n    }\n    \n    /* getters */\n    function getBetInit(address addr) public view returns (bool) {return bets[addr].init;}\n    function getBetIndex(address addr) public view returns (uint8) {return bets[addr].betIndex;}\n    function getBetBlockNumber(address addr) public view returns (uint) {return bets[addr].blockNumber;}\n    function getBetCodes(address addr) public view returns (uint8[9] memory) {\n        uint8[9] memory c = bets[addr].codes;\n        return c;\n    }\n    /* getters */\n\n    /* creates a bet for a player */\n    function createBet(uint8 betIndex, uint8[9] calldata codes) external payable {\n        require(msg.value >= betAmounts[betIndex] && !bets[msg.sender].init, \"Please make sure you have sufficient funds and no active bets!\");\n        require(address(this).balance >= winAmounts[betIndex], \"There's not enough money in the contract in case you win!\");\n        for (uint8 i = 0; i < 9; i++) require(codes[i] >= 1 && codes[i] <= 9);\n        require(betIndex < 3);\n\n        bets[msg.sender] = Bet(true, block.number, betIndex, codes);\n        uint change = msg.value - betAmounts[betIndex];\n        debugVar = change;\n        (bool success,) = msg.sender.call{value: change}(''); assert(success);\n    }\n\n    /* withdraws a player's bet */\n    function withdrawBet() public {\n        Bet storage b = bets[msg.sender];\n        require(b.init, \"You must have placed a bet to withdraw it!\");\n\n        uint8 betAmount = betAmounts[b.betIndex];\n        uint betBlockNumber = b.blockNumber;\n        delete bets[msg.sender];\n\n        if (block.number == betBlockNumber) {\n            (bool success,) = msg.sender.call{value: betAmount}(''); \n            assert(success);\n        }\n    }\n\n    /* checks if a bet has won */\n    function verifyBet() public returns (bool) {\n        Bet storage b = bets[msg.sender];\n        require (b.init, \"You must have placed a bet to verify it!\");\n        require(block.number > b.blockNumber); // or blockhash will fail because the block won't be mined yet\n\n        uint blockNumber = b.blockNumber;\n        uint8[9] memory codes = b.codes;\n        uint8 betIndex = b.betIndex;\n        delete bets[msg.sender]; // maybe codes are not deleted correctly\n\n        bool verified = verifyCodes(blockNumber, codes, chances[betIndex]);\n        if (verified) {\n            uint ownerWins = winAmounts[betIndex] * interest / 100;\n            uint playerWins = winAmounts[betIndex] - ownerWins;\n\n            for (uint i = 0; i < owners.length; i++) {\n                (bool success2,) = owners[i].call{value: ownerWins/owners.length}(''); \n                assert(success2);\n            }\n            (bool success1,) = msg.sender.call{value: playerWins}(''); assert(success1);\n        } else {\n            /* ... you have lost ... */\n        }      \n        return verified;\n    }\n    \n    /* checks if any of a bet's codes has won */\n    function verifyCodes(uint blockNumber, uint8[9] memory codes, uint8 chance) private view returns (bool) {\n        for (uint i = 0; i < 9; i += 3) {\n            uint code = codes[i] * 100 + codes[i+1] * 10 + codes[i+2];\n            uint hashedCode = uint(keccak256(abi.encodePacked(bytes32(code), blockhash(blockNumber))));\n            if (hashedCode % chance == 0) return true;\n        }\n        return false;\n    }\n}\n\n/* \nto-do:\nadd events for js\n*/\n",
  "sourcePath": "/Users/macbook/Sync/Information Systems Dev/blockchain-gambling-game/back-end/contracts/PasswordGame.sol",
  "compiler": {
    "name": "solc",
    "version": "0.8.1+commit.df193b15.Emscripten.clang"
  },
  "schemaVersion": "3.4.1",
  "updatedAt": "2021-06-03T15:40:13.925Z",
  "devdoc": {
    "kind": "dev",
    "methods": {},
    "version": 1
  },
  "userdoc": {
    "kind": "user",
    "methods": {},
    "version": 1
  }
}