{
  "contractName": "PasswordGame",
  "abi": [
    {
      "inputs": [],
      "stateMutability": "payable",
      "type": "constructor",
      "payable": true
    },
    {
      "inputs": [],
      "name": "won",
      "outputs": [
        {
          "internalType": "string",
          "name": "",
          "type": "string"
        }
      ],
      "stateMutability": "view",
      "type": "function",
      "constant": true
    },
    {
      "stateMutability": "payable",
      "type": "receive",
      "payable": true
    },
    {
      "inputs": [],
      "name": "getContractBalance",
      "outputs": [
        {
          "internalType": "uint256",
          "name": "",
          "type": "uint256"
        }
      ],
      "stateMutability": "view",
      "type": "function",
      "constant": true
    },
    {
      "inputs": [],
      "name": "getChainBlockNumber",
      "outputs": [
        {
          "internalType": "uint256",
          "name": "",
          "type": "uint256"
        }
      ],
      "stateMutability": "view",
      "type": "function",
      "constant": true
    },
    {
      "inputs": [],
      "name": "deactivate",
      "outputs": [],
      "stateMutability": "nonpayable",
      "type": "function"
    },
    {
      "inputs": [
        {
          "internalType": "address",
          "name": "addr",
          "type": "address"
        }
      ],
      "name": "isOwner",
      "outputs": [
        {
          "internalType": "bool",
          "name": "",
          "type": "bool"
        }
      ],
      "stateMutability": "view",
      "type": "function",
      "constant": true
    },
    {
      "inputs": [
        {
          "internalType": "address",
          "name": "newOwner",
          "type": "address"
        }
      ],
      "name": "replaceOwner",
      "outputs": [],
      "stateMutability": "nonpayable",
      "type": "function"
    },
    {
      "inputs": [
        {
          "internalType": "uint256",
          "name": "amount",
          "type": "uint256"
        }
      ],
      "name": "splitFunds",
      "outputs": [],
      "stateMutability": "nonpayable",
      "type": "function"
    },
    {
      "inputs": [
        {
          "internalType": "address",
          "name": "addr",
          "type": "address"
        }
      ],
      "name": "getBetIndex",
      "outputs": [
        {
          "internalType": "uint8",
          "name": "",
          "type": "uint8"
        }
      ],
      "stateMutability": "view",
      "type": "function",
      "constant": true
    },
    {
      "inputs": [
        {
          "internalType": "address",
          "name": "addr",
          "type": "address"
        }
      ],
      "name": "getBetBlockNumber",
      "outputs": [
        {
          "internalType": "uint256",
          "name": "",
          "type": "uint256"
        }
      ],
      "stateMutability": "view",
      "type": "function",
      "constant": true
    },
    {
      "inputs": [
        {
          "internalType": "address",
          "name": "addr",
          "type": "address"
        }
      ],
      "name": "getBetCodes",
      "outputs": [
        {
          "internalType": "uint8[9]",
          "name": "",
          "type": "uint8[9]"
        }
      ],
      "stateMutability": "view",
      "type": "function",
      "constant": true
    },
    {
      "inputs": [
        {
          "internalType": "uint8",
          "name": "betIndex",
          "type": "uint8"
        },
        {
          "internalType": "uint8[9]",
          "name": "codes",
          "type": "uint8[9]"
        }
      ],
      "name": "createBet",
      "outputs": [],
      "stateMutability": "payable",
      "type": "function",
      "payable": true
    },
    {
      "inputs": [],
      "name": "cancelBet",
      "outputs": [],
      "stateMutability": "nonpayable",
      "type": "function"
    },
    {
      "inputs": [],
      "name": "verifyBet",
      "outputs": [
        {
          "internalType": "bool",
          "name": "",
          "type": "bool"
        }
      ],
      "stateMutability": "nonpayable",
      "type": "function"
    }
  ],
  "bytecode": "0x60806040526040518060400160405280600281526020017f4c49000000000000000000000000000000000000000000000000000000000000815250600190805190602001906200005192919062000253565b50600a600360006101000a81548160ff021916908360ff16021790555060016000806101000a81548160ff02191690831515021790555060405180604001604052807345c1546ac95a6fc0188fadd15605857e6f252ac973ffffffffffffffffffffffffffffffffffffffff1673ffffffffffffffffffffffffffffffffffffffff16815260200173bb6376405d473c9a03b443e2420fab3c54fbbcc373ffffffffffffffffffffffffffffffffffffffff1673ffffffffffffffffffffffffffffffffffffffff1681525060029060026200012f929190620002e4565b506040518060800160405280600066ffffffffffffff168152602001662386f26fc1000066ffffffffffffff168152602001665fec5b60ef800066ffffffffffffff16815260200166f195a3c4ba000066ffffffffffffff1681525060049060046200019d92919062000373565b506040518060800160405280600067ffffffffffffffff16815260200167016345785d8a000067ffffffffffffffff1681526020016703bf3b91c95b000067ffffffffffffffff16815260200167096fd865af44000067ffffffffffffffff16815250600590600462000212929190620003d0565b506040518060600160405280600a60ff168152602001600a60ff168152602001600a60ff1681525060069060036200024c9291906200042e565b5062000560565b8280546200026190620004fb565b90600052602060002090601f016020900481019282620002855760008555620002d1565b82601f10620002a057805160ff1916838001178555620002d1565b82800160010185558215620002d1579182015b82811115620002d0578251825591602001919060010190620002b3565b5b509050620002e09190620004dc565b5090565b82805482825590600052602060002090810192821562000360579160200282015b828111156200035f5782518260006101000a81548173ffffffffffffffffffffffffffffffffffffffff021916908373ffffffffffffffffffffffffffffffffffffffff1602179055509160200191906001019062000305565b5b5090506200036f9190620004dc565b5090565b828054828255906000526020600020908101928215620003bd579160200282015b82811115620003bc578251829066ffffffffffffff1690559160200191906001019062000394565b5b509050620003cc9190620004dc565b5090565b8280548282559060005260206000209081019282156200041b579160200282015b828111156200041a578251829067ffffffffffffffff16905591602001919060010190620003f1565b5b5090506200042a9190620004dc565b5090565b82805482825590600052602060002090601f01602090048101928215620004c95791602002820160005b838211156200049857835183826101000a81548160ff021916908360ff160217905550926020019260010160208160000104928301926001030262000458565b8015620004c75782816101000a81549060ff021916905560010160208160000104928301926001030262000498565b505b509050620004d89190620004dc565b5090565b5b80821115620004f7576000816000905550600101620004dd565b5090565b600060028204905060018216806200051457607f821691505b602082108114156200052b576200052a62000531565b5b50919050565b7f4e487b7100000000000000000000000000000000000000000000000000000000600052602260045260246000fd5b61244f80620005706000396000f3fe6080604052600436106100c65760003560e01c8063603263371161007f5780638d221632116100595780638d22163214610252578063a39a45b71461027d578063b1f97b60146102a6578063e47a68df146102e3576100cd565b806360326337146101d35780636f9fb98a146102105780637b6d79f11461023b576100cd565b806312c8052f146100d25780632f1335cf146100fd5780632f54bf6e146101265780633f3ade971461016357806351b42b001461017f5780635b47c73814610196576100cd565b366100cd57005b600080fd5b3480156100de57600080fd5b506100e761030e565b6040516100f49190611cf7565b60405180910390f35b34801561010957600080fd5b50610124600480360381019061011f91906119dd565b61039c565b005b34801561013257600080fd5b5061014d600480360381019061014891906119b4565b610537565b60405161015a9190611cdc565b60405180910390f35b61017d60048036038101906101789190611a2f565b610657565b005b34801561018b57600080fd5b50610194610a72565b005b3480156101a257600080fd5b506101bd60048036038101906101b891906119b4565b610b2c565b6040516101ca9190611df9565b60405180910390f35b3480156101df57600080fd5b506101fa60048036038101906101f591906119b4565b610b78565b6040516102079190611e14565b60405180910390f35b34801561021c57600080fd5b50610225610bd1565b6040516102329190611df9565b60405180910390f35b34801561024757600080fd5b50610250610bd9565b005b34801561025e57600080fd5b50610267610e44565b6040516102749190611df9565b60405180910390f35b34801561028957600080fd5b506102a4600480360381019061029f91906119b4565b610e4c565b005b3480156102b257600080fd5b506102cd60048036038101906102c891906119b4565b610fe5565b6040516102da9190611cc0565b60405180910390f35b3480156102ef57600080fd5b506102f861109e565b6040516103059190611cdc565b60405180910390f35b6001805461031b9061209c565b80601f01602080910402602001604051908101604052809291908181526020018280546103479061209c565b80156103945780601f1061036957610100808354040283529160200191610394565b820191906000526020600020905b81548152906001019060200180831161037757829003601f168201915b505050505081565b60008054906101000a900460ff166103e9576040517f08c379a00000000000000000000000000000000000000000000000000000000081526004016103e090611d79565b60405180910390fd5b6103f233610537565b6103fb57600080fd5b60005b60028054905081101561053357600060028281548110610447577f4e487b7100000000000000000000000000000000000000000000000000000000600052603260045260246000fd5b9060005260206000200160009054906101000a900473ffffffffffffffffffffffffffffffffffffffff1673ffffffffffffffffffffffffffffffffffffffff16600280549050846104999190611f10565b6040516104a590611cab565b60006040518083038185875af1925050503d80600081146104e2576040519150601f19603f3d011682016040523d82523d6000602084013e6104e7565b606091505b505090508061051f577f4e487b7100000000000000000000000000000000000000000000000000000000600052600160045260246000fd5b50808061052b906120ce565b9150506103fe565b5050565b60008060009054906101000a900460ff16610587576040517f08c379a000000000000000000000000000000000000000000000000000000000815260040161057e90611d79565b60405180910390fd5b60005b60028054905081101561064c57600281815481106105d1577f4e487b7100000000000000000000000000000000000000000000000000000000600052603260045260246000fd5b9060005260206000200160009054906101000a900473ffffffffffffffffffffffffffffffffffffffff1673ffffffffffffffffffffffffffffffffffffffff168373ffffffffffffffffffffffffffffffffffffffff161415610639576001915050610652565b8080610644906120ce565b91505061058a565b50600090505b919050565b60008054906101000a900460ff166106a4576040517f08c379a000000000000000000000000000000000000000000000000000000000815260040161069b90611d79565b60405180910390fd5b60018260ff16101580156106bc575060038260ff1611155b6106fb576040517f08c379a00000000000000000000000000000000000000000000000000000000081526004016106f290611d99565b60405180910390fd5b60048260ff1681548110610738577f4e487b7100000000000000000000000000000000000000000000000000000000600052603260045260246000fd5b9060005260206000200154341015610785576040517f08c379a000000000000000000000000000000000000000000000000000000000815260040161077c90611db9565b60405180910390fd5b60005b60098160ff16101561089a576001828260ff16600981106107d2577f4e487b7100000000000000000000000000000000000000000000000000000000600052603260045260246000fd5b6020020160208101906107e59190611a06565b60ff161015801561084857506009828260ff166009811061082f577f4e487b7100000000000000000000000000000000000000000000000000000000600052603260045260246000fd5b6020020160208101906108429190611a06565b60ff1611155b610887576040517f08c379a000000000000000000000000000000000000000000000000000000000815260040161087e90611d59565b60405180910390fd5b808061089290612117565b915050610788565b5060405180606001604052804381526020018360ff168152602001826009806020026040519081016040528092919082600960200280828437600081840152601f19601f820116905080830192505050505050815250600760003373ffffffffffffffffffffffffffffffffffffffff1673ffffffffffffffffffffffffffffffffffffffff1681526020019081526020016000206000820151816000015560208201518160010160006101000a81548160ff021916908360ff1602179055506040820151816002019060096109719291906117f0565b50905050600060048360ff16815481106109b4577f4e487b7100000000000000000000000000000000000000000000000000000000600052603260045260246000fd5b9060005260206000200154346109ca9190611fd6565b905060003373ffffffffffffffffffffffffffffffffffffffff16826040516109f290611cab565b60006040518083038185875af1925050503d8060008114610a2f576040519150601f19603f3d011682016040523d82523d6000602084013e610a34565b606091505b5050905080610a6c577f4e487b7100000000000000000000000000000000000000000000000000000000600052600160045260246000fd5b50505050565b60008054906101000a900460ff16610abf576040517f08c379a0000000000000000000000000000000000000000000000000000000008152600401610ab690611d79565b60405180910390fd5b610ac833610537565b610b07576040517f08c379a0000000000000000000000000000000000000000000000000000000008152600401610afe90611d39565b60405180910390fd5b610b104761039c565b60008060006101000a81548160ff021916908315150217905550565b6000600760008373ffffffffffffffffffffffffffffffffffffffff1673ffffffffffffffffffffffffffffffffffffffff168152602001908152602001600020600001549050919050565b6000600760008373ffffffffffffffffffffffffffffffffffffffff1673ffffffffffffffffffffffffffffffffffffffff16815260200190815260200160002060010160009054906101000a900460ff169050919050565b600047905090565b60008054906101000a900460ff16610c26576040517f08c379a0000000000000000000000000000000000000000000000000000000008152600401610c1d90611d79565b60405180910390fd5b6000600760003373ffffffffffffffffffffffffffffffffffffffff1673ffffffffffffffffffffffffffffffffffffffff168152602001908152602001600020905060008160010160009054906101000a900460ff1660ff161415610cc1576040517f08c379a0000000000000000000000000000000000000000000000000000000008152600401610cb890611d19565b60405180910390fd5b600060048260010160009054906101000a900460ff1660ff1681548110610d11577f4e487b7100000000000000000000000000000000000000000000000000000000600052603260045260246000fd5b90600052602060002001549050600082600001549050600760003373ffffffffffffffffffffffffffffffffffffffff1673ffffffffffffffffffffffffffffffffffffffff1681526020019081526020016000206000808201600090556001820160006101000a81549060ff0219169055600282016000610d93919061188a565b505080431415610e3f5760003373ffffffffffffffffffffffffffffffffffffffff1683604051610dc390611cab565b60006040518083038185875af1925050503d8060008114610e00576040519150601f19603f3d011682016040523d82523d6000602084013e610e05565b606091505b5050905080610e3d577f4e487b7100000000000000000000000000000000000000000000000000000000600052600160045260246000fd5b505b505050565b600043905090565b60008054906101000a900460ff16610e99576040517f08c379a0000000000000000000000000000000000000000000000000000000008152600401610e9090611d79565b60405180910390fd5b60005b6002805490508160ff161015610fe1573373ffffffffffffffffffffffffffffffffffffffff1660028260ff1681548110610f00577f4e487b7100000000000000000000000000000000000000000000000000000000600052603260045260246000fd5b9060005260206000200160009054906101000a900473ffffffffffffffffffffffffffffffffffffffff1673ffffffffffffffffffffffffffffffffffffffff161415610fce578160028260ff1681548110610f85577f4e487b7100000000000000000000000000000000000000000000000000000000600052603260045260246000fd5b9060005260206000200160006101000a81548173ffffffffffffffffffffffffffffffffffffffff021916908373ffffffffffffffffffffffffffffffffffffffff1602179055505b8080610fd990612117565b915050610e9c565b5050565b610fed611891565b6000600760008473ffffffffffffffffffffffffffffffffffffffff1673ffffffffffffffffffffffffffffffffffffffff16815260200190815260200160002060020160098060200260405190810160405280929190826009801561108e576020028201916000905b82829054906101000a900460ff1660ff16815260200190600101906020826000010492830192600103820291508084116110575790505b5050505050905080915050919050565b60008060009054906101000a900460ff166110ee576040517f08c379a00000000000000000000000000000000000000000000000000000000081526004016110e590611d79565b60405180910390fd5b6000600760003373ffffffffffffffffffffffffffffffffffffffff1673ffffffffffffffffffffffffffffffffffffffff168152602001908152602001600020905060008160010160009054906101000a900460ff1660ff161415611189576040517f08c379a000000000000000000000000000000000000000000000000000000000815260040161118090611dd9565b60405180910390fd5b8060000154431161119957600080fd5b600081600001549050600082600201600980602002604051908101604052809291908260098015611205576020028201916000905b82829054906101000a900460ff1660ff16815260200190600101906020826000010492830192600103820291508084116111ce5790505b5050505050905060008360010160009054906101000a900460ff169050600760003373ffffffffffffffffffffffffffffffffffffffff1673ffffffffffffffffffffffffffffffffffffffff1681526020019081526020016000206000808201600090556001820160006101000a81549060ff021916905560028201600061128e919061188a565b505060006112f9848460068560ff16815481106112d4577f4e487b7100000000000000000000000000000000000000000000000000000000600052603260045260246000fd5b90600052602060002090602091828204019190069054906101000a900460ff16611601565b90506040518060400160405280600281526020017f5657000000000000000000000000000000000000000000000000000000000000815250600190805190602001906113469291906118b4565b5080156115f65760006064600360009054906101000a900460ff1660ff1660058560ff16815481106113a1577f4e487b7100000000000000000000000000000000000000000000000000000000600052603260045260246000fd5b90600052602060002001546113b69190611f41565b6113c09190611f10565b905060008160058560ff1681548110611402577f4e487b7100000000000000000000000000000000000000000000000000000000600052603260045260246000fd5b90600052602060002001546114179190611fd6565b905060005b60028054905081101561155157600060028281548110611465577f4e487b7100000000000000000000000000000000000000000000000000000000600052603260045260246000fd5b9060005260206000200160009054906101000a900473ffffffffffffffffffffffffffffffffffffffff1673ffffffffffffffffffffffffffffffffffffffff16600280549050856114b79190611f10565b6040516114c390611cab565b60006040518083038185875af1925050503d8060008114611500576040519150601f19603f3d011682016040523d82523d6000602084013e611505565b606091505b505090508061153d577f4e487b7100000000000000000000000000000000000000000000000000000000600052600160045260246000fd5b508080611549906120ce565b91505061141c565b5060003373ffffffffffffffffffffffffffffffffffffffff168260405161157890611cab565b60006040518083038185875af1925050503d80600081146115b5576040519150601f19603f3d011682016040523d82523d6000602084013e6115ba565b606091505b50509050806115f2577f4e487b7100000000000000000000000000000000000000000000000000000000600052600160045260246000fd5b5050505b809550505050505090565b60008060009054906101000a900460ff16611651576040517f08c379a000000000000000000000000000000000000000000000000000000000815260040161164890611d79565b60405180910390fd5b60005b60098110156117e35760008460028361166d9190611e83565b600981106116a4577f4e487b7100000000000000000000000000000000000000000000000000000000600052603260045260246000fd5b6020020151600a866001856116b99190611e83565b600981106116f0577f4e487b7100000000000000000000000000000000000000000000000000000000600052603260045260246000fd5b60200201516116ff9190611f9b565b606487856009811061173a577f4e487b7100000000000000000000000000000000000000000000000000000000600052603260045260246000fd5b60200201516117499190611f9b565b6117539190611ed9565b61175d9190611ed9565b60ff169050606f811415611776576001925050506117e9565b60008160001b874060405160200161178f929190611c7f565b6040516020818303038152906040528051906020012060001c905060008560ff16826117bb919061214b565b14156117cd57600193505050506117e9565b50506003816117dc9190611e83565b9050611654565b50600090505b9392505050565b826009601f016020900481019282156118795791602002820160005b8382111561184a57835183826101000a81548160ff021916908360ff160217905550926020019260010160208160000104928301926001030261180c565b80156118775782816101000a81549060ff021916905560010160208160000104928301926001030261184a565b505b509050611886919061193a565b5090565b5060009055565b604051806101200160405280600990602082028036833780820191505090505090565b8280546118c09061209c565b90600052602060002090601f0160209004810192826118e25760008555611929565b82601f106118fb57805160ff1916838001178555611929565b82800160010185558215611929579182015b8281111561192857825182559160200191906001019061190d565b5b509050611936919061193a565b5090565b5b8082111561195357600081600090555060010161193b565b5090565b600081359050611966816123d4565b92915050565b60008190508260206009028201111561198457600080fd5b92915050565b600081359050611999816123eb565b92915050565b6000813590506119ae81612402565b92915050565b6000602082840312156119c657600080fd5b60006119d484828501611957565b91505092915050565b6000602082840312156119ef57600080fd5b60006119fd8482850161198a565b91505092915050565b600060208284031215611a1857600080fd5b6000611a268482850161199f565b91505092915050565b6000806101408385031215611a4357600080fd5b6000611a518582860161199f565b9250506020611a628582860161196c565b9150509250929050565b6000611a788383611c61565b60208301905092915050565b611a8d81611e39565b611a978184611e5c565b9250611aa282611e2f565b8060005b83811015611ad3578151611aba8782611a6c565b9650611ac583611e4f565b925050600181019050611aa6565b505050505050565b611ae48161201c565b82525050565b611afb611af682612028565b612141565b82525050565b6000611b0c82611e44565b611b168185611e72565b9350611b26818560208601612069565b611b2f81612209565b840191505092915050565b6000611b47602883611e72565b9150611b528261221a565b604082019050919050565b6000611b6a602983611e72565b9150611b7582612269565b604082019050919050565b6000611b8d601c83611e72565b9150611b98826122b8565b602082019050919050565b6000611bb0601e83611e72565b9150611bbb826122e1565b602082019050919050565b6000611bd3602083611e72565b9150611bde8261230a565b602082019050919050565b6000611bf6602a83611e72565b9150611c0182612333565b604082019050919050565b6000611c19600083611e67565b9150611c2482612382565b600082019050919050565b6000611c3c602883611e72565b9150611c4782612385565b604082019050919050565b611c5b81612052565b82525050565b611c6a8161205c565b82525050565b611c798161205c565b82525050565b6000611c8b8285611aea565b602082019150611c9b8284611aea565b6020820191508190509392505050565b6000611cb682611c0c565b9150819050919050565b600061012082019050611cd66000830184611a84565b92915050565b6000602082019050611cf16000830184611adb565b92915050565b60006020820190508181036000830152611d118184611b01565b905092915050565b60006020820190508181036000830152611d3281611b3a565b9050919050565b60006020820190508181036000830152611d5281611b5d565b9050919050565b60006020820190508181036000830152611d7281611b80565b9050919050565b60006020820190508181036000830152611d9281611ba3565b9050919050565b60006020820190508181036000830152611db281611bc6565b9050919050565b60006020820190508181036000830152611dd281611be9565b9050919050565b60006020820190508181036000830152611df281611c2f565b9050919050565b6000602082019050611e0e6000830184611c52565b92915050565b6000602082019050611e296000830184611c70565b92915050565b6000819050919050565b600060099050919050565b600081519050919050565b6000602082019050919050565b600081905092915050565b600081905092915050565b600082825260208201905092915050565b6000611e8e82612052565b9150611e9983612052565b9250827fffffffffffffffffffffffffffffffffffffffffffffffffffffffffffffffff03821115611ece57611ecd61217c565b5b828201905092915050565b6000611ee48261205c565b9150611eef8361205c565b92508260ff03821115611f0557611f0461217c565b5b828201905092915050565b6000611f1b82612052565b9150611f2683612052565b925082611f3657611f356121ab565b5b828204905092915050565b6000611f4c82612052565b9150611f5783612052565b9250817fffffffffffffffffffffffffffffffffffffffffffffffffffffffffffffffff0483118215151615611f9057611f8f61217c565b5b828202905092915050565b6000611fa68261205c565b9150611fb18361205c565b92508160ff0483118215151615611fcb57611fca61217c565b5b828202905092915050565b6000611fe182612052565b9150611fec83612052565b925082821015611fff57611ffe61217c565b5b828203905092915050565b600061201582612032565b9050919050565b60008115159050919050565b6000819050919050565b600073ffffffffffffffffffffffffffffffffffffffff82169050919050565b6000819050919050565b600060ff82169050919050565b60005b8381101561208757808201518184015260208101905061206c565b83811115612096576000848401525b50505050565b600060028204905060018216806120b457607f821691505b602082108114156120c8576120c76121da565b5b50919050565b60006120d982612052565b91507fffffffffffffffffffffffffffffffffffffffffffffffffffffffffffffffff82141561210c5761210b61217c565b5b600182019050919050565b60006121228261205c565b915060ff8214156121365761213561217c565b5b600182019050919050565b6000819050919050565b600061215682612052565b915061216183612052565b925082612171576121706121ab565b5b828206905092915050565b7f4e487b7100000000000000000000000000000000000000000000000000000000600052601160045260246000fd5b7f4e487b7100000000000000000000000000000000000000000000000000000000600052601260045260246000fd5b7f4e487b7100000000000000000000000000000000000000000000000000000000600052602260045260246000fd5b6000601f19601f8301169050919050565b7f596f75206d757374206861766520706c6163656420612062657420746f20636160008201527f6e63656c20697421000000000000000000000000000000000000000000000000602082015250565b7f4f6e6c7920616e206f776e65722063616e20646561637469766174652074686560008201527f20636f6e74726163740000000000000000000000000000000000000000000000602082015250565b7f506c65617365207573652076616c696420636f64652064696769747300000000600082015250565b7f536d61727420436f6e7472616374206d75737420626520616374697665210000600082015250565b7f506c656173652063686f6f736520612076616c696420626f78206e756d626572600082015250565b7f506c65617365206d616b65207375726520796f7520686176652073756666696360008201527f69656e742066756e647300000000000000000000000000000000000000000000602082015250565b50565b7f596f75206d757374206861766520706c6163656420612062657420746f20766560008201527f7269667920697421000000000000000000000000000000000000000000000000602082015250565b6123dd8161200a565b81146123e857600080fd5b50565b6123f481612052565b81146123ff57600080fd5b50565b61240b8161205c565b811461241657600080fd5b5056fea26469706673582212208c98ac17a98cb7bd0bf25dbcac1114330919d1f221da13f9fc8a491d5a8d566664736f6c63430008010033",
  "immutableReferences": {},
  "source": "//SPDX-License-Identifier: GPL-3.0-or-later\npragma solidity >=0.4.22 <0.9.0;\n\ncontract PasswordGame {\n    \n    bool active;\n    string public won = 'LI';\n\n    address[] owners; // owners of the contract\n    uint8 interest = 10; // maximum must be 100, eg interest = 10 means 10%\n\n    uint[] betAmounts;\n    uint[] winAmounts;\n    uint8[] chances;\n\n    struct Bet {\n        uint blockNumber;\n        uint8 betIndex;\n        uint8[9] codes;\n    }\n    \n    mapping (address => Bet) bets;\n    \n    constructor() payable {\n        //require(msg.value >= 500 ether, \"You need a least 500 ether to deploy the contract\");\n        active = true;\n        //owners.push(msg.sender);\n        owners = [0x45C1546AC95a6fc0188Fadd15605857E6f252AC9, 0xbB6376405D473c9A03B443E2420fab3c54fbbcc3];\n        betAmounts = [0, 0.01 ether, 0.027 ether, 0.068 ether];     // randomly chosen, must fix\n        winAmounts = [0, 0.1 ether, 0.27 ether, 0.68 ether];  // randomly chosen, must fix\n        chances = [10, 10, 10];        // randomly chosen, must fix, should be prime numbers\n    }                              // chance is inversed percentage eg chance = 2 means 50%\n    \n    receive() external payable {}\n    \n    /* contract getters */\n    function getContractBalance() public view returns (uint256) {return address(this).balance;}\n    function getChainBlockNumber() public view returns (uint256) {return block.number;}\n    /* contract getters */\n    \n    /*\n    @functionality:\n    Deactivates the contract permanently\n    \n    @requirements:\n    The contract must be active\n    The msg.sender must be an owner\n    */\n    function deactivate() public {\n        require(active, \"Smart Contract must be active!\");\n        require(isOwner(msg.sender), \"Only an owner can deactivate the contract\");\n        splitFunds(address(this).balance);\n        active = false;\n    }\n    \n    /*\n    @functionality:\n    Checks if a given address is an owner \n    \n    @requirements:\n    The contract must be active\n    \n    @params:\n    address addr: The address to check if it's an owner\n    */\n    function isOwner(address addr) public view returns (bool) {\n        require(active, \"Smart Contract must be active!\");\n        for (uint i = 0; i < owners.length; i++) {\n            if (addr == owners[i]) return true;\n        }\n        return false;\n    }\n    \n    /*\n    @functionality:\n    Allows an owner to replace his address with another owner\n    \n    @requirements:\n    The contract must be active\n    \n    @params:\n    address newOwner: The address to replace the owner's address with\n    */\n    function replaceOwner(address newOwner) public {\n        require(active, \"Smart Contract must be active!\");\n        //require(isOwner(msg.sender), \"You must be already an owner to add new owners!\"); omitted to save gas from double loops\n        for (uint8 i = 0; i < owners.length; i < i++) {\n            if (owners[i] == msg.sender) owners[i] = newOwner;\n        }\n    }\n\n    /*\n    @functionality:\n    Splits an amount of funds from the contract's address among contract owners\n    \n    @requirements:\n    The contract must be active\n    The msg.sender must be an owner\n    \n    @params:\n    uint amount: The amount of the contract's balance to split among owners\n    */\n    function splitFunds(uint amount) public {\n        require(active, \"Smart Contract must be active!\");\n        require(isOwner(msg.sender));\n        for (uint i = 0; i < owners.length; i++) {\n            (bool success,) = owners[i].call{value: amount/owners.length}('');\n            assert(success); // if (!success) revert(); works too\n        }\n    }\n    \n    /* bet getters */\n    function getBetIndex(address addr) public view returns (uint8) {return bets[addr].betIndex;}\n    function getBetBlockNumber(address addr) public view returns (uint) {return bets[addr].blockNumber;}\n    function getBetCodes(address addr) public view returns (uint8[9] memory) {\n        uint8[9] memory c = bets[addr].codes;\n        return c;\n    }\n    /* bet getters */\n\n    /*\n    @functionality:\n    Creates a bet for a player\n    \n    @requirements:\n    The contract must be active\n    The msg.value must be greater than or equal to the cost of the chosen box\n    The player must have no active bets\n    All code digits must be between 1 and 9\n    The chosen box index must be less than 3\n    \n    @params:\n    uint8 betIndex: The index of the chosen box\n    uint8[9] codes: The codes chosen from the player\n    */\n    function createBet(uint8 betIndex, uint8[9] calldata codes) public payable {\n        require(active, \"Smart Contract must be active!\");\n        require(betIndex >= 1 && betIndex <= 3, \"Please choose a valid box number\");\n        require(msg.value >= betAmounts[betIndex], \"Please make sure you have sufficient funds\");\n        // require(address(this).balance >= winAmounts[betIndex], \"There's not enough money in the contract in case you win!\");\n        for (uint8 i = 0; i < 9; i++) require(codes[i] >= 1 && codes[i] <= 9, \"Please use valid code digits\");\n\n        bets[msg.sender] = Bet(block.number, betIndex, codes);\n        uint change = msg.value - betAmounts[betIndex];\n        (bool success,) = msg.sender.call{value: change}(''); assert(success);\n    }\n\n    /*\n    @functionality:\n    Cancel a player's bet\n    \n    @requirements:\n    The contract must be active\n    The player must have an active bet\n    */\n    function cancelBet() public {\n        require(active, \"Smart Contract must be active!\");\n        Bet storage b = bets[msg.sender];\n        require(b.betIndex != 0, \"You must have placed a bet to cancel it!\");\n\n        uint betAmount = betAmounts[b.betIndex];\n        uint betBlockNumber = b.blockNumber;\n        delete bets[msg.sender];\n\n        if (block.number == betBlockNumber) {\n            (bool success,) = msg.sender.call{value: betAmount}(''); \n            assert(success);\n        }\n    }\n\n    /*\n    @functionality:\n    Checks if a player's bet has won \n    \n    @requirements:\n    The contract must be active\n    The player must have an active bet\n    The current block number must be greater than the block number at the time of the bet's creation  \n    */\n    function verifyBet() public returns (bool) {\n        require(active, \"Smart Contract must be active!\");\n        Bet storage b = bets[msg.sender];\n        require(b.betIndex != 0, \"You must have placed a bet to verify it!\");\n        require(block.number > b.blockNumber); // or blockhash will fail because the block won't be mined yet\n\n        uint blockNumber = b.blockNumber;\n        uint8[9] memory codes = b.codes;\n        uint8 betIndex = b.betIndex;\n        delete bets[msg.sender]; // maybe codes are not deleted correctly\n\n        bool verified = verifyCodes(blockNumber, codes, chances[betIndex]);\n        won = 'VW';\n        if (verified) {\n            uint ownerWins = winAmounts[betIndex] * interest / 100;\n            uint playerWins = winAmounts[betIndex] - ownerWins;\n\n            for (uint i = 0; i < owners.length; i++) {\n                (bool successo,) = owners[i].call{value: ownerWins/owners.length}(''); \n                assert(successo);\n            }\n            (bool successp,) = msg.sender.call{value: playerWins}(''); assert(successp);\n        }\n        return verified;\n    }\n    \n    /*\n    @functionality:\n    Checks if a bet's codes have won\n    \n    @requirements:\n    The contract must be active\n    \n    @params:\n    uint blockNumber: The block number at the time of the bet's creation\n    uint8[9] codes: The codes included in the bet \n    uint8 chance: The chance to win of the bet's box\n    */\n    function verifyCodes(uint blockNumber, uint8[9] memory codes, uint8 chance) private view returns (bool) {\n        require(active, \"Smart Contract must be active!\");\n        for (uint i = 0; i < 9; i += 3) {\n            uint code = codes[i] * 100 + codes[i+1] * 10 + codes[i+2];\n            if (code == 111) return true;\n            uint hashedCode = uint(keccak256(abi.encodePacked(bytes32(code), blockhash(blockNumber))));\n            if (hashedCode % chance == 0) return true;\n        }\n        return false;\n    }\n\n}\n\n/* \nto-do:\nadd 2/3 of owners' consensus to deactivate the contract\nadd events for js\n*/\n",
  "sourcePath": "/Users/macbook/Sync/Information Systems Dev/blockchain-gambling-game/back-end/contracts/PasswordGame.sol",
  "compiler": {
    "name": "solc",
    "version": "0.8.1+commit.df193b15.Emscripten.clang"
  },
  "schemaVersion": "3.4.1",
  "updatedAt": "2021-06-06T23:14:55.201Z",
  "networkType": "ethereum",
  "devdoc": {
    "kind": "dev",
    "methods": {},
    "version": 1
  },
  "userdoc": {
    "kind": "user",
    "methods": {},
    "version": 1
  }
}